S020000053656E736F724D6F64756C65576972656C657373426F6F742E7372656342
S113E0000C94FF700C941C710C941C710C941C7176
S113E0100C941C710C941C710C941C710C941C7148
S113E0200C941C710C941C710C941C710C941C7138
S113E0300C94E0730C941C710C941C710C941C7162
S113E0400C941C710C941C710C941C710C941C7118
S113E0500C94E1760C94AF760C941C710C941C71A6
S113E0600C941C710C941C710C941C710C941C71F8
S113E0700C941C710C941C710C941C719571997105
S113E080B471BA71C071CD71EE71A871D377F5779F
S113E090FB7706780C7812783E7844784A78507882
S113E0A056785C78627868786E7874787A78C6780E
S113E0B0CC78F3783D791B792679556E6B6E6F7742
S113E0C06E00003530313031302D30303030363460
S113E0D00000000041542652310D0A004154423DD3
S113E0E033383430302C382C6E2C310D0A001B5A46
S113E0F00041542B4E535544503D34313530300D8E
S113E1000A0041542B4E434C4F5345414C4C0D0A8D
S113E1100041542B4E435544503D3139322E313653
S113E120382E312E3235352C34313530310D0A004C
S113E13041542B42444154413D310D0A0041542B7A
S113E14044484350535256523D310D0A0041542B1A
S113E1504E5345543D3139322E3136382E312E311D
S113E1602C3235352E3235352E3235352E302C3194
S113E17039322E3136382E312E310D0A0041542BCE
S113E1804E444843503D310D0A0041542B57413D04
S113E19000415445300D0A00415456310D0A000D1A
S113E1A00A0D0A41540D0A0041542B5053504F4C50
S113E1B04C494E54524C3D300D0A0041542B57509B
S113E1C03D300D0A0041542B57525841435449568F
S113E1D0453D310D0A0041542B575345433D310D04
S113E1E00A0041542B574D3D320D0A0041542B5720
S113E1F0524547444F4D41494E3D300D0A001124CC
S113E2001FBECFEFD0E1DEBFCDBF11E0A0E0B1E093
S113E210E2EBF3EF02C005900D92A630B107D9F7F7
S113E22023E0A6E0B1E001C01D92A83EB207E1F7E9
S113E2300E9412740C94D7790C94007020911801E8
S113E24030911901A901480F511DCA014F3F5105D1
S113E25019F010F08F5F91099093190180931801C0
S113E26020911801309119018091160190911701A4
S113E270820F931F8F3F910519F010F08F5F910962
S113E2809093170180931601209326018091160123
S113E2908093250108958FEF90E090931901809366
S113E2A0180190931701809316018FEF8093260134
S113E2B08093250108952091140130911501A9013D
S113E2C0480F511DCA014F3F510519F010F08F5FDF
S113E2D091099093150180931401209114013091B8
S113E2E015018091120190911301820F931F8F3FAA
S113E2F0910519F010F08F5F9109909313018093A9
S113E300120120931101809112018093100108954C
S113E310E0912A024E2F50E04830510508F066C0C3
S113E320FA01E25CFF480C94A479823C09F05EC0D7
S113E3300BC0833521F40E941E7182E054C0823CDC
S113E34071F40E944B7182EC0E941E7181E04BC0FB
S113E35090912501891303C081E0809321010E94DB
S113E3604B7110922A020895809329020E941E7113
S113E37083E039C0809328020E941E7184E033C078
S113E38080932702811105C086E080932A0280E0F1
S113E39023C095E090932A021FC0909122019F5FB1
S113E3A09093220120912702E091230192130CC043
S113E3B0F0E0E95DFE4F80830E941E7110922201FD
S113E3C01092230186E00FC091E09E0F90932301E9
S113E3D0F0E0E95DFE4F80830C941E71909126015C
S113E3E08913BDCF87E080932A0208950895809110
S113E3F02401109224010895FF920F931F93CF9349
S113E400DF93D82FC62F142FF22E032F80931A01D7
S113E41060931B0140931C0120931D0130931E0146
S113E4208FEF90E090931501809314019093130162
S113E430809312018FEF809311018093100182EC7D
S113E4400E945B7183E50E945B718D2F0E945B715A
S113E4508C2F0E945B71812F0E945B71CF2DD02F76
S113E460CE01810F911D8C01C017D10721F0899134
S113E4700E945B71F9CF8091110180931F018091FB
S113E480100180932001DF91CF911F910F91FF9094
S113E49008958AE191E00C944679EF92FF920F93EC
S113E4A01F93CF93DF93CDB7DEB7CA54D1090FB60C
S113E4B0F894DEBF0FBECDBF80912101882309F4FB
S113E4C02AC180912902811124C19091280290339C
S113E4D0D9F419829A8381E080931A0110921B0166
S113E4E082E080931C01CE01019690931E018093DB
S113E4F01D0189E480931F0182E8809320010E941A
S113E50049720E94407605C1911136C00E947A7604
S113E510FE0131969E01255B3F4FDF017F011D9275
S113E5202A173B07E1F7DC018E01055F1F4F8D9130
S113E53081930E171F07D9F70E947D769E01255EF1
S113E5403F4FFC014191CF01F80141938F01E21744
S113E550F307B9F7CF010E947676CE018B960E941D
S113E5605D76CE01CB960E94447697014AE461E041
S113E57080E00E94FC7136C0913309F0BCC0209148
S113E5800A0130910B01232B09F071C0409127013E
S113E590509128016091290170912A0100910C0188
S113E5A010910D0120910E0130910F014017510778
S113E5B062077307D1F019829A831B8281E08093EA
S113E5C01A0180931B0183E080931C01CE01019604
S113E5D090931E0180931D018CE480931F0186EDAE
S113E5E0809320010E94497294C020912702411512
S113E5F0510561057105B1F030E0C9010497092E98
S113E600000CAA0BBB0B840F951FA61FB71F80938A
S113E6100C0190930D01A0930E01B0930F0184E0BF
S113E62090E021C080912F0190913001A09131019F
S113E630B09132018093060190930701A0930801E1
S113E640B0930901822F90E00497092E000CAA0BC5
S113E650BB0B80930C0190930D01A0930E01B0931A
S113E6600F018CE290E090930B0180930A0180915A
S113E6700A0190910B016091270270E0681B790BED
S113E680895D9E4F0E940A7620910A0130910B0108
S113E690820F931F90930B0180930A01209127020C
S113E6A030E08217930728F495B182E0892785B971
S113E6B032C010920B0110920A01198281E38A83FD
S113E6C081E080931A0110921B0182E080931C0167
S113E6D0CE01019690931E0180931D018AE48093DC
S113E6E01F0183E8809320010E94497295B180E163
S113E6F0892785B90EC0923361F40E947A76BC01F1
S113E7006C5F7F4F8BE291E00E94807681110E94C2
S113E710F97310922101C65BDF4F0FB6F894DEBF88
S113E7200FBECDBFDF91CF911F910F91FF90EF905E
S113E73008956091060170910701809108019091FC
S113E74009010895F89485B7816085BF15BE0C94BE
S113E7500000089580915702909158022091590227
S113E76030915A022817390728F08217930728F4A2
S113E7708F5F9E4F821B930B089580E090E0089575
S113E7808091590290915A02209157023091580277
S113E7902817390799F09C012F5F3F4F30935A0295
S113E7A020935902FC01E55AFD4F8081213031400C
S113E7B030F010925A0210925902089580E00895A0
S113E7C01F920F920FB60F9211248F939F938091F3
S113E7D05C038F5F80935C0389E09DE390938900E1
S113E7E0809388009F918F910F900FBE0F901F9080
S113E7F01895CF93DF931F92CDB7DEB783E089835B
S113E8009E012F5F3F4F41E065E080E00E94FC7174
S113E8100E9449720F90DF91CF91089581E0809317
S113E8203702089510923A02109239021092380277
S113E8301092370280E092E090932C0280932B0296
S113E840F89481E085BF82E085BF9FE088E10FB640
S113E850F894A895809360000FBE90936000109286
S113E86053021092540210925502109256021092C2
S113E8704F021092500210925102109252021092C2
S113E8804B0210924C0210924D0210924E0214B898
S113E89017B81AB884B18B6984B987B18F6C87B9FA
S113E8A08AB18B698AB91DB815B81BB859980E94EA
S113E8B091761092800089E08093810080916F00AE
S113E8C0826080936F0089E09DE390938900809338
S113E8D088008FEF80935D0310925C030DE212E0D9
S113E8E0C6EAD7E0F999FECFCE010E94C179F801BA
S113E8F081938F012196C03BF7E0DF0799F76AEB1C
S113E90070EE8BE392E00E94AA792C9AF999FECFDB
S113E9108DE697E00E94C179782EF999FECF8AE6B8
S113E92097E00E94C179682E882391F0F999FECF6F
S113E93060E08AE697E00E94C979F999FECF6FEF0B
S113E9408DE697E00E94C979F999FECF77247A94ED
S113E950F999FECF6FEF81E397E00E94C97978942B
S113E960C0E0D0E05524539480E8C82ED12C91E126
S113E970492E20E4322EA89571101CC081E0681243
S113E98009C080913902811122C0509239020E943B
S113E990F9731DC0809137028823C9F0F999FECF1D
S113E9A06FEF8CE697E00E94C979F999FECF0E9437
S113E9B0A2730DC080913A02811106C050923A02AE
S113E9C0D0922C02C0922B0291E06916D1F2809170
S113E9D05C03882309F441C0815080935C038091D7
S113E9E05D038F3F19F410925D0303C08F5F809322
S113E9F05D0380915D0380FFBECFE1E06E1631F0D0
S113EA0080913702811102C00E94BC7710913702B5
S113EA10112321F0711002C00E94A27321968091EB
S113EA202B0290912C028C179D0798F488B18325B2
S113EA3088B9112361F085B1F2E08F2785B985B1DA
S113EA4098E0892785B985B1E0E18E2785B9C0E0D2
S113EA50D0E0A8950E944D728ECFA8950E94AA730B
S113EA608F3F910509F008F45EC0F894809053023A
S113EA7090905402A0905502B090560283E0F401A5
S113EA8080935700E89507B606FE04C040925700ED
S113EA90E895F9CF00E010E00E94C073282EE82E1C
S113EAA00E94C073F82EF801070150925700E895B0
S113EAB0112490E0A0E0B0E0820D911DA11DB11DD4
S113EAC040914F0250915002609151027091520254
S113EAD0840F951FA61FB71F80934F029093500277
S113EAE0A0935102B09352020E5F1F4F0115F1E043
S113EAF01F0791F685E0F40180935700E8959FEF96
S113EB00991AA90AB90A8092530290925402A092C7
S113EB105502B092560207B606FE04C04092570052
S113EB20E895F9CF789480913802882309F423CFAB
S113EB300E9499738B019C0140914B0250914C02AD
S113EB4060914D0270914E0280E090E0DC01FC0186
S113EB50B4904B0D511D611D711D0196A11DB11D78
S113EB608115F0EE9F07A105B10589F740934B028B
S113EB7050934C0260934D0270934E028093530263
S113EB8090935402A0935502B093560280914F0281
S113EB9090915002A0915102B091520208171907A6
S113EBA02A073B07D1F40417150726073707A9F4EA
S113EBB0F894F999FECF60E08DE697E00E94C97958
S113EBC0F999FECF60E08AE697E00E94C979F99945
S113EBD0FECF0E94A273712CCECE109239021092F5
S113EBE0380210925302109254021092550210925D
S113EBF0560210924F02109250021092510210923B
S113EC00520210924B0210924C0210924D0210923A
S113EC104E02B1CE0F931F93CF93DF938C01EB0180
S113EC200E94AA7320E031E0A901481B590BCA01D4
S113EC30C417D50708F4CE01209157023091580229
S113EC40F801B801680F791FE617F70781F0A901E9
S113EC504F5F5F4FA191E901C55ADD4FA883413051
S113EC6021E0520710F040E050E09A01EDCF3093DC
S113EC70580220935702DF91CF911F910F9108956D
S113EC8081E08093380208950F931F93CF93DF930D
S113EC908C01C0EBD7E0F999FECFCE010E94C17977
S113ECA0F80181938F012196C03CF7E0DF0799F7C3
S113ECB0DF91CF911F910F9108950F931F93CF93DD
S113ECC0DF938C01C0EDD7E0F999FECFCE010E940D
S113ECD0C179F80181938F012196C03EF7E0DF07E7
S113ECE099F7DF91CF911F910F91089563EC70EE26
S113ECF00C94AA798DE292E008958BE392E0089552
S113ED00FB019C012C5F3F4FDC015D91CD014191E2
S113ED10541305C0A217B307B9F781E0089580E042
S113ED2008951092600310925F0310925E03E8EC62
S113ED30F0E080E8808380818F60808383E390E0CB
S113ED409093CE008093CD0080E28093CC00EAECD7
S113ED50F0E080818B6080835F98419808951F92D2
S113ED600F920FB60F9211242F933F934F935F93FB
S113ED706F937F938F939F93AF93BF93EF93FF937F
S113ED8095B188E0892785B9E9ECF0E08081886055
S113ED908083E8ECF0E08081806880830E94917633
S113EDA0FF91EF91BF91AF919F918F917F916F915F
S113EDB05F914F913F912F910F900FBE0F901F9035
S113EDC018951F920F920FB60F9211242F933F9311
S113EDD04F935F936F937F938F939F93AF93BF935F
S113EDE0EF93FF938091C90080FF07C08091D20008
S113EDF00E94887181E08093C9008091C90081FFDD
S113EE001CC0E091600380915F03E81789F081E002
S113EE108E0F80936003F0E0EF59FC4F8081809364
S113EE20D2008091600387FF05C01092600302C086
S113EE3010925E0382E08093C900FF91EF91BF912D
S113EE40AF919F918F917F916F915F914F913F917E
S113EE502F910F900FBE0F901F901895F8948091EA
S113EE60600390915F03981710F4815003C08917D1
S113EE7018F48158891B01C08FE7789408951F9373
S113EE80CF93DF93D82F192FC62F0E942E778C177C
S113EE9088F1F894E0915F039D2FAD2FB12F8A2F55
S113EEA0891B8C1758F481E08E0F2D91F0E0EF59F7
S113EEB0FC4F208387FD80E0E82FF1CFE0935F03D0
S113EEC080915E03813099F081E080935E03E0914C
S113EED060038E0F80936003F0E0EF59FC4F808154
S113EEE08093D2008091600387FD10926003789430
S113EEF081E001C080E0DF91CF911F91089590E0FF
S113EF009093CE008093CD000895909160038091FA
S113EF105F03981308C08091C90082FB882780F999
S113EF2091E08927089580E00895599808950F93F2
S113EF301F93CF93DF93CDB7DEB7E2970FB6F89464
S113EF40DEBF0FBECDBF8C01BC01CE0101960E9475
S113EF50AA79C8010E94B179682FCE0101960E9456
S113EF603F77E2960FB6F894DEBF0FBECDBFDF91B8
S113EF70CF911F910F910895CF93DF93CDB7DEB753
S113EF8064970FB6F894DEBF0FBECDBFE091E503E2
S113EF908E2F90E08731910508F06FC1FC01EA5B88
S113EFA0FF480C94A47941980E9495778091E303DB
S113EFB09091E40301969093E4038093E3038130FA
S113EFC0910511F4299A59C18436910511F42998AF
S113EFD054C1893E934008F450C181E08093E50315
S113EFE01092E4031092E30348C18FE991EE0E946A
S113EFF0977782E005C088E991EE0E94977783E0D5
S113F0008093E20386E18093E50337C181E991EEC1
S113F0100E94977784E0F4CF84ED90EE0E94977776
S113F02086E0EECF8091E3039091E4030196909300
S113F030E4038093E3038130910519F48CED90EEA1
S113F040E0C0893E934030F01092E4031092E30351
S113F05086E0D9CF0E94F7718130B1F30E948577A1
S113F060882309F40AC18091E103811106C18CE06F
S113F0700E947F7781E08093E103FFC080E391EEFB
S113F0800E94977787E0BCCF8CEE91EE0E94977731
S113F09088E0B6CF82EE91EE0E94977789E0B0CFF8
S113F0A086ED91EE0E9497778AE0AACF85EC91EEE7
S113F0B00E9497778BE0A4CF8BEB91EE0E94977719
S113F0C08CE09ECF88EA91EE0E9497778DE098CFEE
S113F0D08DE791EE0E9497778EE092CF8DE491EECA
S113F0E00E9497778FE08CCF8DE391EE0E94977703
S113F0F080E186CF8091E3039091E403019690939D
S113F100E4038093E3038130910589F583E48983E3
S113F11084E48A8383E58B838AE48C8382E48D830D
S113F1208FE58E838AEA97E00E94C1798F838BEA08
S113F13097E00E94C17988878CEA97E00E94C179A0
S113F14089878DEA97E00E94C1798A871B8660E0EF
S113F15071E0CE010B960E94BA798AE891EE0E9482
S113F160977760E1CE0101960E943F7786C0893E81
S113F170934030F01092E4031092E30381E143CF13
S113F1800E94F771813009F078C0F4CF82E091EEEB
S113F1900E94977782E134CF8091E3039091E40356
S113F1A001969093E4038093E3038130910519F46D
S113F1B081E191EE26C08B3F910528F01092E40383
S113F1C01092E30306C00E94F771823009F055C023
S113F1D0F5CFF999FECF6091E70380E397E00E94B1
S113F1E0C97983E110CF8091E3039091E403019600
S113F1F09093E4038093E3038130910529F481EF34
S113F20090EE0E94977739C08B3F910528F01092B9
S113F210E4031092E30305C00E94F771833069F59B
S113F220F6CFF999FECF6091E6038FE297E00E9452
S113F230C97985E1E8CE299AF999FECF60E081E3A6
S113F24097E00E94C9790E940E7417C08091E3036D
S113F2509091E40301969093E4038093E3038B3F3E
S113F260910538F01092E4031092E3038091E203D5
S113F270CACE0E94F7718130A9F364960FB6F89450
S113F280DEBF0FBECDBFDF91CF9108950F931F93C3
S113F290CF93DF93CDB7DEB72A970FB6F894DEBFCE
S113F2A00FBECDBF8C01FC01328187E0830F9091AA
S113F2B0E703905D998390E39A8364E60E949879CA
S113F2C020E3280F2B83892F6AE00E949879805DC0
S113F2D08C83905D9D8382EC8E8383E58F83808114
S113F2E08887818189873A878EEE90EE0E9497778E
S113F2F06AE0CE0101960E943F77F8016281838122
S113F30094810E943F77F8018581898386818A836D
S113F31062E0CE0101960E943F772A960FB6F894D8
S113F320DEBF0FBECDBFDF91CF911F910F91089526
S113F330991B79E004C0991F961708F0961B881F43
S113F3407A95C9F780950895EE0FFF1F0590F49103
S113F350E02D0994FB01DC0105900D920020E1F7FA
S113F3600895FC0105900020E9F7809590958E0F93
S113F3709F1F0895FB01DC0101900D920020E1F72D
S113F3800895F999FECF92BD81BDF89A992780B569
S113F3900895262FF999FECF1FBA92BD81BD20BDD5
S113F3A00FB6F894FA9AF99A0FBE01960895F89454
S105F3B0FFCF89
S109F3B22C2C360D0A00AC
S903E0001C
