:10E000000C9405710C9422710C9422710C94227161
:10E010000C9422710C9422710C9422710C94227134
:10E020000C9422710C9422710C9422710C94227124
:10E030000C94E6730C9422710C9422710C9422714E
:10E040000C9422710C9422710C9422710C94227104
:10E050000C94E7760C94B5760C9422710C94227192
:10E060000C9422710C9422710C9422710C942271E4
:10E070000C9422710C9422710C9422719B719F71EB
:10E08000BA71C071C671D371F471AE71D377F5777F
:10E09000FB77047854790A78137819781F782578F3
:10E0A0004C78527858785E7864786A786D787378AE
:10E0B00079787F788578CE78D478FB78547923790D
:10E0C0003B792E79322E302E302E30303031000018
:10E0D00000000000003630313031302D303030302B
:10E0E00030310000000041542B594C433D310D0AA2
:10E0F0000041542652310D0A001B5A0041542B4E48
:10E10000535544503D34313530300D0A0041542BC5
:10E110004E434C4F5345414C4C0D0A0041542B4E3D
:10E12000435544503D3139322E3136382E312E325E
:10E1300035352C34313530310D0A0041542B4244F1
:10E140004154413D310D0A0041542B444843505342
:10E150005256523D310D0A0041542B4E5345543D09
:10E160003139322E3136382E312E312C3235352E92
:10E170003235352E3235352E302C3139322E31367E
:10E18000382E312E310D0A0041542B4E4448435055
:10E190003D310D0A0041542B57413D00415445305B
:10E1A0000D0A00415456310D0A000D0A0D0A415462
:10E1B0000D0A0041542B5053504F4C4C494E545271
:10E1C0004C3D300D0A0041542B57503D300D0A0094
:10E1D00041542B5752584143544956453D310D0A3D
:10E1E0000041542B575345433D310D0A0041542BF8
:10E1F000574D3D320D0A0041542B57524547444F6D
:10E200004D41494E3D300D0A000011241FBECFEF95
:10E21000D0E1DEBFCDBF11E0A0E0B1E0E2EDF3EF71
:10E2200002C005900D92A030B107D9F723E0A0E01D
:10E23000B1E001C01D92A23EB207E1F70E9418743E
:10E240000C94E7790C940070209112013091130125
:10E25000A901480F511DCA014F3F510519F010F097
:10E260008F5F910990931301809312012091120105
:10E27000309113018091100190911101820F931F31
:10E280008F3F910519F010F08F5F91099093110164
:10E2900080931001209320018091100180931F0131
:10E2A00008958FEF90E09093130180931201909363
:10E2B0001101809310018FEF8093200180931F0143
:10E2C000089520910E0130910F01A901480F511DB1
:10E2D000CA014F3F510519F010F08F5F91099093DB
:10E2E0000F0180930E0120910E0130910F0180915A
:10E2F0000C0190910D01820F931F8F3F910519F032
:10E3000010F08F5F910990930D0180930C01209381
:10E310000B0180910C0180930A010895E091240281
:10E320004E2F50E04830510508F066C0FA01E25C1B
:10E33000FF480C94BB79823C09F05EC00BC083356A
:10E3400021F40E94247182E054C0823C71F40E9446
:10E35000517182EC0E94247181E04BC090911F01A9
:10E36000891303C081E080931B010E9451711092B8
:10E3700024020895809323020E94247183E039C00F
:10E38000809322020E94247184E033C08093210292
:10E39000811105C086E08093240280E023C095E0CF
:10E3A000909324021FC090911C019F5F90931C01C9
:10E3B00020912102E0911D0192130CC0F0E0EF5D6D
:10E3C000FE4F80830E94247110921C0110921D0147
:10E3D00086E00FC091E09E0F90931D01F0E0EF5D8D
:10E3E000FE4F80830C942471909120018913BDCF3E
:10E3F00087E0809324020895089580911E01109271
:10E400001E010895FF920F931F93CF93DF93D82F90
:10E41000C62F142FF22E032F809314016093150141
:10E420004093160120931701309318018FEF90E06D
:10E4300090930F0180930E0190930D0180930C0136
:10E440008FEF80930B0180930A0182EC0E9461712F
:10E4500083E50E9461718D2F0E9461718C2F0E9453
:10E460006171812F0E946171CF2DD02FCE01810F5C
:10E47000911D8C01C017D10721F089910E94617113
:10E48000F9CF80910B018093190180910A0180934B
:10E490001A01DF91CF911F910F91FF90089584E1B0
:10E4A00091E00C945D79EF92FF920F931F93CF93BD
:10E4B000DF93CDB7DEB7CA54D1090FB6F894DEBFEB
:10E4C0000FBECDBF80911B01882309F42AC1809122
:10E4D0002302811124C1909122029033D9F4198230
:10E4E0009A8381E0809314011092150182E0809359
:10E4F0001601CE010196909318018093170189E4CB
:10E500008093190182E880931A010E944F720E9441
:10E51000467605C1911136C00E948076FE01319683
:10E520009E01255B3F4FDF017F011D922A173B07AC
:10E53000E1F7DC018E01055F1F4F8D9181930E176E
:10E540001F07D9F70E9483769E01255E3F4FFC018D
:10E550004191CF01F80141938F01E217F307B9F719
:10E56000CF010E947C76CE018B960E946376CE010D
:10E57000CB960E944A7697014AE461E080E00E94CF
:10E58000027236C0913309F0BCC020910401309171
:10E590000501232B09F071C0409121015091220106
:10E5A00060912301709124010091060110910701EF
:10E5B0002091080130910901401751076207730744
:10E5C000D1F019829A831B8281E080931401809399
:10E5D000150183E080931601CE01019690931801F6
:10E5E000809317018CE48093190186ED80931A01C2
:10E5F0000E944F7294C0209121024115510561057E
:10E600007105B1F030E0C9010497092E000CAA0B86
:10E61000BB0B840F951FA61FB71F80930601909315
:10E620000701A0930801B093090184E090E021C0A4
:10E630008091290190912A01A0912B01B0912C0188
:10E640008093000190930101A0930201B093030114
:10E65000822F90E00497092E000CAA0BBB0B80932D
:10E66000060190930701A0930801B09309018CE281
:10E6700090E09093050180930401809104019091B2
:10E6800005016091210270E0681B790B8F5D9E4F40
:10E690000E9410762091040130910501820F931F92
:10E6A00090930501809304012091210230E08217AC
:10E6B000930728F495B182E0892785B932C010927A
:10E6C000050110920401198281E38A8381E080931D
:10E6D00014011092150182E080931601CE0101967B
:10E6E00090931801809317018AE48093190183E8BD
:10E6F00080931A010E944F7295B180E1892785B9F4
:10E700000EC0923361F40E948076BC016C5F7F4F33
:10E7100085E291E00E94867681110E94FF7310923B
:10E720001B01C65BDF4F0FB6F894DEBF0FBECDBF37
:10E73000DF91CF911F910F91FF90EF90089560911D
:10E7400000017091010180910201909103010895EF
:10E75000F89485B7816085BF15BE0C9400000895BC
:10E7600080915102909152022091530230915402B3
:10E770002817390728F08217930728F48F5F9E4FD8
:10E78000821B930B089580E090E0089580915302DE
:10E79000909154022091510230915202281739076A
:10E7A00099F09C012F5F3F4F309354022093530206
:10E7B000FC01EB5AFD4F80812130314030F0109246
:10E7C000540210925302089580E008951F920F9210
:10E7D0000FB60F9211248F939F93809156038F5FF2
:10E7E0008093560389E09DE390938900809388008D
:10E7F0009F918F910F900FBE0F901F901895CF9300
:10E80000DF931F92CDB7DEB783E089839E012F5F30
:10E810003F4F41E065E080E00E9402720E944F722B
:10E820000F90DF91CF91089581E080933102089598
:10E83000109234021092330210923202109231027E
:10E8400080E092E09093260280932502F89481E084
:10E8500085BF82E085BF9FE088E10FB6F894A89558
:10E86000809360000FBE9093600010924D02109252
:10E870004E0210924F0210925002109249021092D2
:10E880004A0210924B0210924C02109245021092D2
:10E890004602109247021092480214B817B81AB8EC
:10E8A00084B18B6984B987B18F6C87B98AB18B6960
:10E8B0008AB91DB815B81BB859980E94977610925E
:10E8C000800089E08093810080916F008260809356
:10E8D0006F0089E09DE390938900809388008FEF1B
:10E8E000809357031092560307E212E0C6EAD7E07E
:10E8F000F999FECFCE010E94D179F80181938F0161
:10E900002196C03BF7E0DF0799F764EC70EE85E3F2
:10E9100092E00E94C1792C9AF999FECF8DE697E09A
:10E920000E94D179782EF999FECF8AE697E00E946D
:10E93000D179682E882391F0F999FECF60E08AE6BC
:10E9400097E00E94D979F999FECF6FEF8DE697E0B5
:10E950000E94D979F999FECF77247A94F999FECF5C
:10E960006FEF81E397E00E94D9797894C0E0D0E01E
:10E970005524539480E8C82ED12C91E1492E20E4EF
:10E98000322EA89571101CC081E0681209C08091D8
:10E990003302811122C0509233020E94FF731DC0C6
:10E9A000809131028823C9F0F999FECF6FEF8CE690
:10E9B00097E00E94D979F999FECF0E94A8730DC003
:10E9C00080913402811106C050923402D092260206
:10E9D000C092250291E06916D1F2809156038823F6
:10E9E00009F441C0815080935603809157038F3FB3
:10E9F00019F41092570303C08F5F809357038091DF
:10EA0000570380FFBECFE1E06E1631F080913102F6
:10EA1000811102C00E94BC7710913102112321F0B4
:10EA2000711002C00E94A8732196809125029091D6
:10EA300026028C179D0798F488B1832588B9112385
:10EA400061F085B1F2E08F2785B985B198E089271B
:10EA500085B985B1E0E18E2785B9C0E0D0E0A89501
:10EA60000E9453728ECFA8950E94B0738F3F91057C
:10EA700009F008F45EC0F89480904D0290904E0228
:10EA8000A0904F02B090500283E0F40180935700B1
:10EA9000E89507B606FE04C040925700E895F9CF06
:10EAA00000E010E00E94C673282EE82E0E94C67374
:10EAB000F82EF801070150925700E895112490E0D4
:10EAC000A0E0B0E0820D911DA11DB11D4091490251
:10EAD00050914A0260914B0270914C02840F951F35
:10EAE000A61FB71F8093490290934A02A0934B023E
:10EAF000B0934C020E5F1F4F0115F1E01F0791F616
:10EB000085E0F40180935700E8959FEF991AA90AD0
:10EB1000B90A80924D0290924E02A0924F02B0929A
:10EB2000500207B606FE04C040925700E895F9CFA0
:10EB3000789480913202882309F423CF0E949F7336
:10EB40008B019C0140914502509146026091470221
:10EB50007091480280E090E0DC01FC01B4904B0D24
:10EB6000511D611D711D0196A11DB11D8115F0EE94
:10EB70009F07A105B10589F74093450250934602CE
:10EB8000609347027093480280934D0290934E0227
:10EB9000A0934F02B09350028091490290914A0293
:10EBA000A0914B02B0914C02081719072A073B07A6
:10EBB000D1F40417150726073707A9F4F894F99933
:10EBC000FECF60E08DE697E00E94D979F999FECFFB
:10EBD00060E08AE697E00E94D979F999FECF0E9419
:10EBE000A873712CCECE1092330210923202109282
:10EBF0004D0210924E0210924F021092500210924B
:10EC0000490210924A0210924B0210924C0210924A
:10EC10004502109246021092470210924802B1CE6D
:10EC20000F931F93CF93DF938C01EB010E94B0737E
:10EC300020E031E0A901481B590BCA01C417D507D0
:10EC400008F4CE012091510230915202F801B8012E
:10EC5000680F791FE617F70781F0A9014F5F5F4F33
:10EC6000A191E901CB5ADD4FA883413021E0520741
:10EC700010F040E050E09A01EDCF30935202209323
:10EC80005102DF91CF911F910F91089581E0809300
:10EC9000320208950F931F93CF93DF938C01C0EB43
:10ECA000D7E0F999FECFCE010E94D179F801819386
:10ECB0008F012196C03CF7E0DF0799F7DF91CF91F4
:10ECC0001F910F9108950F931F93CF93DF938C01A2
:10ECD000C0EDD7E0F999FECFCE010E94D179F801BD
:10ECE00081938F012196C03EF7E0DF0799F7DF910E
:10ECF000CF911F910F91089565ED70EE0C94C1793D
:10ED000087E292E0089585E392E00895FB019C017B
:10ED10002C5F3F4FDC015D91CD014191541305C043
:10ED2000A217B307B9F781E0089580E00895109223
:10ED30005A031092590310925803E8ECF0E080E86F
:10ED4000808382EA8093CC0080818F60808383E01F
:10ED500090E09093CE008093CD00EAECF0E08081CB
:10ED60008B6080835F98419808951F920F920FB631
:10ED70000F9211242F933F934F935F936F937F9341
:10ED80008F939F93AF93BF93EF93FF9395B188E0D9
:10ED9000892785B9E9ECF0E0808188608083E8EC20
:10EDA000F0E08081806880830E949776FF91EF91E8
:10EDB000BF91AF919F918F917F916F915F914F9193
:10EDC0003F912F910F900FBE0F901F9018951F929B
:10EDD0000F920FB60F9211242F933F934F935F938F
:10EDE0006F937F938F939F93AF93BF93EF93FF9313
:10EDF0008091C90080FF07C08091D2000E948E716F
:10EE000081E08093C9008091C90081FF1CC0E0911E
:10EE10005A0380915903E81789F081E08E0F80939F
:10EE20005A03F0E0E55AFC4F80818093D200809134
:10EE30005A0387FF05C010925A0302C0109258036C
:10EE400082E08093C900FF91EF91BF91AF919F91B4
:10EE50008F917F916F915F914F913F912F910F9083
:10EE60000FBE0F901F901895F89480915A039091BF
:10EE70005903981710F4815003C0891718F481586A
:10EE8000891B01C08FE7789408951F93CF93DF9378
:10EE9000D82F192FC62F0E9434778C1788F1F89439
:10EEA000E09159039D2FAD2FB12F8A2F891B8C170D
:10EEB00058F481E08E0F2D91F0E0E55AFC4F20834D
:10EEC00087FD80E0E82FF1CFE0935903809158034C
:10EED000813099F081E080935803E0915A038E0FBE
:10EEE00080935A03F0E0E55AFC4F80818093D20072
:10EEF00080915A0387FD10925A03789481E001C0F3
:10EF000080E0DF91CF911F91089590915A038091F5
:10EF10005903981308C08091C90082FB882780F9A3
:10EF200091E08927089580E00895599808950F93F6
:10EF30001F93CF93DF93CDB7DEB7E2970FB6F89468
:10EF4000DEBF0FBECDBF8C01BC01CE0101960E9479
:10EF5000C179C8010E94C879682FCE0101960E942C
:10EF60004577E2960FB6F894DEBF0FBECDBFDF91B6
:10EF7000CF911F910F910895CF93DF93CDB7DEB757
:10EF800064970FB6F894DEBF0FBECDBFE091DF03EC
:10EF90008E2F90E08C31910508F086C1FC01EA5B70
:10EFA000FF480C94BB7941980E9495778091DD03CE
:10EFB0009091DE0301969093DE038093DD03813010
:10EFC000910511F4299A70C18436910511F429989C
:10EFD0006BC1893E934008F467C181E08093DF03F1
:10EFE0001092DE031092DD035FC18AEA91EE0E9467
:10EFF000977782E005C08AEA91EE0E94977783E0D6
:10F000008093DC038BE149C18AEA91EE0E949777F5
:10F0100085E0F6CF86EE90EE0E94977786E08093AB
:10F02000DC038AE13AC183EA91EE0E94977787E098
:10F03000E7CF8CE991EE0E94977788E0E1CF81EFEE
:10F0400090EE0E94977789E0DBCF8091DD0390916D
:10F05000DE0301969093DE038093DD0381309105FA
:10F0600009F422C1893E934030F01092DE031092E1
:10F07000DD038AE012C10E94FD718130B1F30E946C
:10F080008577882309F410C18091DB0381110CC1BD
:10F0900081E08093DB0308C18BE391EE0E949777B8
:10F0A0008BE0AECF87EF91EE0E9497778CE0A8CFF0
:10F0B0008DEE91EE0E9497778DE0A2CF81EE91EEDA
:10F0C0000E9497778EE09CCF80ED91EE0E9497771B
:10F0D0008FE096CF86EC91EE02C083EB91EE0E941A
:10F0E000977781E18DCF88E891EE0E94977782E152
:10F0F00087CF88E591EE0E94977783E181CF88E4FE
:10F1000091EE0E94977784E17BCF8091DD0390910F
:10F11000DE0301969093DE038093DD038130910539
:10F1200071F583E4898384E48A8383E58B838AE4AD
:10F130008C8382E48D838FE58E838AEA97E00E9438
:10F14000D1798F838BEA97E00E94D17988878CEA06
:10F1500097E00E94D17989878DEA97E00E94D17962
:10F160008A878DE08B878AE08C8785E991EE0E9403
:10F1700097776CE0CE0101960E94457795C0893E55
:10F18000934030F01092DE031092DD0385E185C0DC
:10F190000E94FD71813009F087C0F4CF8DE091EEBF
:10F1A0000E94977786E12CCF8091DD039091DE035A
:10F1B00001969093DE038093DD038130910519F46D
:10F1C0008CE191EE26C08B3F910528F01092DE0372
:10F1D0001092DD0306C00E94FD71823009F064C008
:10F1E000F5CFF999FECF6091E10380E397E00E94AB
:10F1F000D97987E152C08091DD039091DE030196B9
:10F200009093DE038093DD038130910529F48CEF28
:10F2100090EE0E94977748C08B3F910528F010929E
:10F22000DE031092DD0305C00E94FD718330E1F51D
:10F23000F6CFF999FECF6091E0038FE297E00E944C
:10F24000D97989E12AC0299AF999FECF60E081E352
:10F2500097E00E94D9790E94147426C08091DD0342
:10F260009091DE0301969093DE038093DD038B3F44
:10F27000910568F415C08091DD039091DE0301963D
:10F280009093DE038093DD03893E934048F0109213
:10F29000DE031092DD038091DC038093DF0304C062
:10F2A0000E94FD71813099F364960FB6F894DEBF29
:10F2B0000FBECDBFDF91CF9108950F931F93CF93D2
:10F2C000DF93CDB7DEB72A970FB6F894DEBF0FBE37
:10F2D000CDBF8C01FC01328187E0830F9091E10367
:10F2E000905D998390E39A8364E60E94AF7920E36E
:10F2F000280F2B83892F6AE00E94AF79805D8C8371
:10F30000905D9D8382EC8E8383E58F8380818887E7
:10F31000818189873A8789EF90EE0E9497776AE02A
:10F32000CE0101960E944577F80162818381948124
:10F330000E944577F8018581898386818A8362E00E
:10F34000CE0101960E9445772A960FB6F894DEBF4B
:10F350000FBECDBFDF91CF911F910F910895991BE3
:10F3600079E004C0991F961708F0961B881F7A95BC
:10F37000C9F780950895EE0FFF1F0590F491E02DD9
:10F380000994FB01DC0105900D920020E1F708953E
:10F39000FC0105900020E9F7809590958E0F9F1F46
:10F3A0000895F999FECF92BD81BDF89A992780B54D
:10F3B0000895262FF999FECF1FBA92BD81BD20BDB9
:10F3C0000FB6F894FA9AF99A0FBE01960895F89438
:02F3D000FFCF6D
:040000030000E00019
:00000001FF
