:100000000C94DD000C94FA000C94FA000C94FA00A5
:100010000C94FA000C94FA000C94FA000C94FA0078
:100020000C94FA000C94FA000C94FA000C94FA0068
:100030000C94F51A0C94FA000C94FA000C94FA0043
:100040000C94FA000C94FA000C940B100C94FA0027
:100050000C94A21E0C94701E0C94FA000C94FA00DE
:100060000C94FA000C94FA000C94FA000C94D1034E
:100070000C94FA000C94FA000C94FA00F1041305A5
:100080002E0536053E054805F4040B05AE10C810D4
:10009000CA106C106C106C106C106C106C106C1022
:1000A0006C10CC106C106C106C10D5106C106C10A7
:1000B000DE106C106C10E7106C106C10F3106C10EC
:1000C0006C106C10F9106C102A1130116C106C103F
:1000D0003E114911551158116C105B115E116C10D5
:1000E0007E116C10D4112012E01100126C106C10F3
:1000F0006C106C106C106C106C106C106C106C1020
:100100006C106C106C106C106C106C106C106C100F
:100110006C106C106C106C106C106C106C106C10FF
:100120006C106C106C106C106C106C106C106C10EF
:100130006C106C106C106C106C106C106C106C10DF
:100140006C106C106C106C106C106C106C106C10CF
:100150006C106C106C106C106C106C106C106C10BF
:100160006C106C106C106C106C106C106C106C10AF
:100170006C106C106C106C106C106C106C106C109F
:100180006C106C106C106C10A010E715281761151E
:10019000FE16B415C316FE1483140314A4133D16DF
:1001A000B501A4013530313031302D3030303036AA
:1001B0003400000000001B5A000011241FBECFEFC6
:1001C000D0E1DEBFCDBF11E0A0E0B1E0E2E2F0E4BB
:1001D00002C005900D92AC30B107D9F728E0ACE031
:1001E000B1E001C01D92A530B207E1F70E940E1BDD
:1001F0000C940F200C94000022E531E04AE151E01C
:10020000DA01F90187E0119211921D921D9281503D
:10021000D1F7225F3F4F425F5F4F81E02A383807B6
:1002200079F71092170110927C0080917C00806415
:1002300080937C0080917C008F7780937C008091FC
:100240007C008F7D80937C0080917C00896080930E
:100250007C0080917A00876080937A0080917A0098
:10026000886080937A0080917A00806880937A0019
:1002700080917C00807E80937C0080917C008960EE
:1002800080937C00109219011092170110921601B0
:1002900081E08093180185B18E7785B94098589890
:1002A0002F9A089580911701882311F180911601EA
:1002B00081111FC04AE151E062E571E0FB01DA0102
:1002C00020E08081918196958795969587958D936D
:1002D0009D93119211922F5F273099F7425F5F4FE4
:1002E000625F7F4F81E04235580741F71092170156
:1002F00008950895809118018F5F809318018530CB
:1003000050F081E08093180185B18E7785B94098CF
:1003100058982F9A08958130B9F3823061F0833074
:1003200081F0843009F0089585B18E7785B94098C1
:100330005898289A089585B18E7785B94098589A2B
:10034000089585B18E7785B95898409A0895CF93CE
:10035000DF9380911601811108C080917A0080643A
:1003600080937A00DF91CF91089580910E018823C8
:1003700069F080910001882309F448C010920001BF
:1003800080917A00806480937A00ECCF81E0809342
:100390000E018093000195B19E7795B940985898C9
:1003A0002F9A8093180180E092E00E94ED1810923D
:1003B0001501109214011092190122E531E04AE171
:1003C00051E0DA01F90180E0119211921D921D9223
:1003D0008F5F8730C9F7225F3F4F425F5F4F81E0F9
:1003E0002A38380771F71092170180917C00807EBF
:1003F00080937C0090917C00E0911901F0E0EC5F2B
:10040000FE4F8081892B80937C00ACCFF8940E94B2
:10041000F418EC019091140180911501692F70E09E
:100420009B01E7E08E9F200D311D1124220F331F09
:10043000F901EE5AFE4F40815181529542954F701D
:1004400045275F704527F901EF56F84F51834083E8
:100450004D3FE1E05E0708F448C04430524008F4E4
:10046000C8C090910D01993008F044C00E94F41862
:10047000843622E0920708F088C101960E94ED18A8
:100480000E942D1A80910C01813009F47BC181E01A
:1004900080930C0180910D018F5F80930D0122E507
:1004A00031E04AE151E0DA01F90180E01192119264
:1004B0001D921D928F5F8730C9F7225F3F4F425FC9
:1004C0005F4F81E02A38380771F710921701809149
:1004D0001401873008F009C18093190110921001AE
:1004E00081E08093000178943DCF20910D01293067
:1004F00008F40EC1F999FECF9EE0899F9001112466
:100500002259384FCB01880F991F6C2F820F931FF0
:100510000E940120F999FECF2091150180911401CC
:1005200090E0880F991FEEE02E9F800D911D112401
:100530006D2F8159984F0E940120F999FECF80912B
:1005400015012091140130E0F90147E0849FE00D8E
:10055000F11D1124EE0FFF1FEF56F84F4EE0849F60
:10056000C00111248E5C984F220F331F6081820FCF
:10057000931F0E940120F999FECF209115018091CF
:10058000140190E0FC0137E0239FE00DF11D1124E0
:10059000EE0FFF1FEF56F84F6181880F991F4EE055
:1005A000249F800D911D11248D5C984F0E94012085
:1005B000809114018F5F8093140180E092E00E948B
:1005C000ED1880917C00807E80937C00E091140186
:1005D000E73008F0B3C090917C00F0E0EC5FFE4F94
:1005E0008081892B80937C000E94321A10920D0129
:1005F00056CFF999FECFEEE08E9F9001112422593B
:10060000384FCB01880F991F6C2F820F931F0E94C8
:100610000120F999FECF209115018091140190E0FD
:10062000880F991F3EE0239F800D911D11246D2F8F
:100630008159984F0E940120F999FECF80911501B0
:100640002091140130E0F90147E0849FE00DF11D95
:100650001124EE0FFF1FEF56F84F4EE0849FC001AC
:1006600011248E5C984F220F331F6081820F931FDD
:100670000E940120F999FECF20911501809114016B
:1006800090E0FC0137E0239FE00DF11D1124EE0FF7
:10069000FF1FEF56F84F6181880F991F4EE0249F8E
:1006A000800D911D11248D5C984F0E940120809136
:1006B00014018F5F8093140180E092E00E94ED1896
:1006C00080917C00807E80937C00E0911401E73073
:1006D000C8F490917C00F0E0EC5FFE4F8081892BA4
:1006E00080937C000E941F1ADACE10921401C091F0
:1006F0001501CF5FC09315010E947A01C43078F5CF
:1007000080E0EACE80917C00896080937C00EACF13
:10071000CD39E1E0DE07C0F0CE0101970E94ED186F
:100720000E94281A80910C01882361F110920C011B
:1007300080910D018F5F80930D01B1CE80917C007F
:10074000896080937C0050CF21E020931301809337
:100750001201909311019F5F90931401ADCF1092FD
:10076000160110920E010E941A1A40911101609117
:100770001201809113010E94FC0C0E94B808809124
:100780001401AACE10920D018ACE81E0809313014C
:1007900080911501809312018091140180931101C1
:1007A00088CF1F920F920FB60F9211242F933F9371
:1007B0004F935F936F937F938F939F93AF93BF9369
:1007C000CF93EF93FF93209178003091790040917F
:1007D00019018091180190E00197FC01EE0FFF1FB5
:1007E000EE0FFF1FEE0FFF1FE81BF90BE40FF11DCB
:1007F000EE0FFF1FEE5AFE4F822F90E0932B2081C9
:100800003181820F931F91838083809110018F5FCC
:1008100080931001C0911601CC23C9F0803128F4D7
:1008200080917A00806480937A00FF91EF91CF915C
:10083000BF91AF919F918F917F916F915F914F91F8
:100840003F912F910F900FBE0F901F9018958430FD
:1008500038F34F5F4093190180917C00807E809334
:100860007C00473050F180917C00896080937C004F
:1008700010921901809118018430C1F10E947A010F
:10088000109210018C2F90E02091180130E021503F
:100890003109F901EE0FFF1FEE0FFF1FEE0FFF1FD3
:1008A000E21BF30BE80FF91FEE0FFF1FE353F84FA6
:1008B000808191810E94ED18B8CF90917C00E091E9
:1008C0001901F0E0EC5FFE4F8081892B80937C0062
:1008D000809117018F5F80931701C09119011092C9
:1008E0001001C73078F280E090E0CECF81E08093B5
:1008F0000F01C4CF8AE191E0089581E08093160151
:10090000089580910F01089510920F01089580912C
:100910001601089520911301FC012083809112019A
:10092000FB01808380911101FA0180830895209159
:100930007A0230917B02A901480F511DCA014F3F35
:10094000510519F010F08F5F910990937B0280930D
:100950007A022091780230917902280F391F2F3FB7
:10096000310519F010F02F5F31093093790220938F
:10097000780280938703209386030895209176025E
:1009800030917702A901480F511DCA014F3F51050F
:1009900019F010F08F5F910990937702809376029F
:1009A0002091740230917502280F391F2F3F3105B5
:1009B00019F010F02F5F3109309375022093740203
:1009C00080937302209372020895E0918B044E2F5E
:1009D00050E04830510538F4FA01E25CFF4F0C94C6
:1009E000DA1F823CA9F1089590918703891709F4D1
:1009F00077C08FEF90E090937B0280937A02909380
:100A00007902809378028FEF809387038093860327
:100A100010928B040895909186038913EACF81E0A8
:100A200080938302E6CF833509F45EC0823C09F7E8
:100A30008FEF90E090937B0280937A0290937902FB
:100A4000809378028FEF809387038093860382ECF4
:100A50000E94970481E080938B04089580938A0418
:100A60000E94970483E080938B0408958093890407
:100A70000E94970484E080938B04089580938804F7
:100A800081111BC086E080938B0480E00C94970456
:100A9000909184029F5F9093840220918804E0915A
:100AA0008502921779F091E09E0F90938502F0E015
:100AB000E857FC4F80830C94970495E090938B0447
:100AC0000C949704F0E0E857FC4F80830E94970451
:100AD000109284021092850286E080938B04089520
:100AE00087E080938B0408950E94970482E08093AE
:100AF0008B040895FF920F931F93CF93DF93D82F0A
:100B0000C62F042FF22E132F80937C0260937D0258
:100B100040937E0220937F02309380028FEF90E01B
:100B2000909377028093760290937502809374027B
:100B30008FEF809373028093720282EC0E94BE0456
:100B400083E50E94BE048D2F0E94BE048C2F0E945C
:100B5000BE04802F0E94BE04002371F0CF2DD12F40
:100B6000015010E00F5F1F4F0C0F1D1F89910E9455
:100B7000BE04C017D107D1F7809173028093810220
:100B80008091720280938202DF91CF911F910F9129
:100B9000FF900895CF93DF93EC01F8940E94CA1B55
:100BA000DC0190918A01983150F586E0989FF00120
:100BB0001124E557FE4F14968C9114978083159657
:100BC0008C911597818316968C9116978283179630
:100BD0008C918383288180E1289F90011124898151
:100BE0008F70282B24832A8180E1289F9001112473
:100BF0008B818F70282B25839F5F90938A01789437
:100C0000DF91CF91089520918A01283190F4FC0161
:100C100086E0289FD0011124A557BE4FAF014A5F3F
:100C20005F4F81918D93E417F507D9F72F5F2093DC
:100C30008A01089540918A01411101C00895842FCD
:100C4000880F480F440F2BE831E061E08AE00E94F2
:100C50007A058CE792E00E94781F10928A0108952D
:100C6000CF93DF9300D0CDB7DEB7198281E38A83BB
:100C7000ECE7F2E081E08083118282E08283CE01A2
:100C80000196948383838AE4858383E88683CF01F6
:100C90000E94781F0F900F90DF91CF910895CF930E
:100CA000DF931F92CDB7DEB783E08983ECE7F2E0F4
:100CB000108285E0818381E08283CE010196948356
:100CC00083838FE1858385E48683CF010E94781F2B
:100CD0000F90DF91CF910895CF93DF9300D0CDB7E0
:100CE000DEB788E089838AE08A83ECE7F2E081E07E
:100CF0008083118282E08283CE0101969483838374
:100D00008BE285838CE68683CF010E94781F0F904B
:100D10000F90DF91CF910895CF93DF9300D01F9272
:100D2000CDB7DEB7198281E38A831B82ECE7F2E05C
:100D300081E08083818383E08283CE010196948366
:100D400083838CE4858386ED8683CF010E94781FA0
:100D50000F900F900F90DF91CF910895CF93DF9375
:100D600000D0CDB7DEB7198280E38A83ECE7F2E0EA
:100D700081E08083118282E08283CE010196948398
:100D8000838389E4858382E88683CF010E94781F6C
:100D90000F900F90DF91CF910895CF930E94D40EC2
:100DA000C82F80918302882381F080918A0481304A
:100DB00071F098F18830D1F08A3029F4809189045B
:100DC000833009F470C010928302CF9108959091FE
:100DD00089049111F8CF909188039830A1F79091F0
:100DE00089039B3081F780931B02EDCF80918904AA
:100DF0008A3049F70E9487048111E5CF0E943B1E8B
:100E00000E9487120E946C068C2F80680E94D70E69
:100E10000E94460D0E947D04D6CF809189048111E5
:100E20000FC080911C028111CECF0E943B1E8C2FDF
:100E300080620E94D70E0E943B120E94310DC3CFE8
:100E4000803309F45FC0813309F440C0823309F074
:100E5000BACF0E948C0E10921D0210921E021092A8
:100E60001F02109220020E94CA1BBC016C5F7F4FC0
:100E70008CE893E00E94DA0E882309F471C0F8949C
:100E8000F999FECF8AE697E00E94F91F813009F4B4
:100E900040C0F999FECF61E08AE697E00E94012008
:100EA000F999FECFEFCF609188048DEC689F812D7A
:100EB000112486958695982F990F990F890F68139D
:100EC00082CF88E893E00E94DD0A7DCF8C2F8B7F54
:100ED0000E94D70E409188035091890360918A0344
:100EE00070918B0380911D0290911E02A0911F02B0
:100EF000B0912002481759076A077B0769F00E94E2
:100F00008C0661CF0E94B60E0E94A10E0E94AE0612
:100F10005ACF0E94D01B57CFECE8F3E0A6E8B2E02E
:100F200081918D9384E0E638F807D1F70E94D40EC2
:100F300088600E94D70E80911D0290911E02A091A0
:100F40001F02B091200286509F4FAF4FBF4F80933A
:100F50001D0290931E02A0931F02B093200233CF74
:100F60008CE893E00E945B0D2ECFCF93DF9300D0EF
:100F700000D01F92CDB7DEB721E029838A839B83FF
:100F80006C831D829E012F5F3F4F45E069E083E047
:100F90000E947A058CE792E00E94781F0F900F90D4
:100FA0000F900F900F90DF91CF91089586E892E017
:100FB000089520912102DC0198E0920F8D91E22F9B
:100FC000F0E0EE5DFD4F80832F5F2913F7CF209374
:100FD00021022A3408F40895109221020E94D40EAE
:100FE00080610C94D70E80911C02089581E080935B
:100FF0001C02089510921C02089580911B0208950E
:1010000010921B020895CF93DF931F92CDB7DEB7E6
:10101000198222E232E04AE461E080E00E947A052F
:101020008CE792E00E94781F0E9481128F5F898373
:101030009E012F5F3F4F41E062E08AE00E947A0507
:101040008CE792E00E94781F0F90DF91CF91089576
:10105000CF93DF930E94CA1BA2E2B2E02CE632E0FB
:10106000FD0111922E173F07E1F7FC01CCE2D2E01F
:1010700081918D9382E0AC32B807D1F70E94CD1BED
:10108000FC012CE332E0819189932C173D07D9F7BD
:101090008CE392E00E94691A8CE492E00E94501A5C
:1010A0008CE592E00E94371ADF91CF910C940308EF
:1010B0009B01FB018083482F440F440F440F481BC2
:1010C0004F5F6BE088E00E947A058CE792E00C9419
:1010D000781F109221020E94D40E85FD0895806130
:1010E0000C94D70E10928C04089580918C04811179
:1010F00008950E943812811108C00E94FE1D8823A5
:1011000021F00E94C71B882359F00E945F0A8823A0
:1011100079F382E00E94A90D82E080938C04089507
:1011200081E00E94A90D81E080938C04089581E004
:1011300090918C04911101C080E008958093010189
:101140000895809101010895E8E9F4E01082118288
:10115000128213828FE0809397041092960410926B
:101160009504E9ECF7E0108211821282138208954F
:10117000AF92BF92CF92DF92EF92FF920F931F93A5
:10118000CF93DF9380E4C82E87E0D82E86010054E9
:101190001740C8018F56984F7C01E6012E970353E4
:1011A000184FF999FECFCE01CC960E94F91FA82EB8
:1011B000B12CF999FECFCE01CD960E94F91F950171
:1011C000382BC9018F3F3FEF9307B9F1F8018193A5
:1011D00091938F01F999FECFCE010E94F91FA82E9D
:1011E000B12CF999FECFCE0101960E94F91F95010D
:1011F000382BC9018F3F3FEF9307E1F0F70181934F
:1012000091937F012296CC16DD0659F6FEE0CF0EB3
:10121000D11C28E7C21627E0D20609F0B7CFDF912C
:10122000CF911F910F91FF90EF90DF90CF90BF90E3
:10123000AF90089580E092E0E1CF80E092E0C6CFE9
:10124000CF93DF930E947A04FC0161E977E0C9EC57
:10125000D7E0AF01425F5F4FDB0105C021933193BF
:101260004E175F0781F0208131818D919D91281B60
:10127000390B37FFF3CF3195219531092193319304
:101280004E175F0781F7625F7F4FFA01C617D707D6
:1012900001F7DF91CF910895CF93C82F0E947A0470
:1012A000FC012EE0C29FE00DF11D112490E08FEFB4
:1012B00040E050E0219131914217530710F4892FFB
:1012C000A9019F5F9730B1F790919304992359F149
:1012D000209197046C2F70E0E22FF0E00C2E02C0FA
:1012E000F595E7950A94E2F7E0FD3FC0FB01E15771
:1012F000FB4F1082211124C01092930491E090932F
:1013000094044E31510508F085C0FB01E753F84FB6
:1013100080818F5F80838D3008F476C08CE080837D
:1013200080E0CF910895909194049923C9F1909110
:101330000201C91709F474C06C2F70E02091970462
:101340004E31510508F04EC0822F90E0062E02C0AB
:10135000959587950A94E2F780FFD7CFFB01E75375
:10136000F84F10828FEFCF9108954833510508F45C
:10137000BDCF823008F4BACFFB01E157FB4F90811B
:101380009F5F9083933008F4B5CFE1E0F0E001C0B7
:10139000EE0FCA95EAF7E0952E2320939704AACF83
:1013A0004833510520F2823010F2909102019F3FA4
:1013B00009F43FC0C917B9F190918D04943028F019
:1013C00091E090939304909395046C2F70E020919A
:1013D000970430E002C035952795CA95E2F7217051
:1013E000332709C030E0062E02C0359527950A94B0
:1013F000E2F721703327FB01E753F84F1082232BCC
:1014000009F0B0CFCF910895FB01E856FB4F8081E2
:10141000CF910895FB01E753F84F1082CF910895C3
:1014200010928D0489CF90918D049F5F90938D04CD
:10143000C5CFC093020190918D049F5F90938D045E
:10144000BDCF80E00E944C098093980481E00E9407
:101450004C098093990482E00E944C0980939A047D
:1014600083E00E944C0980939B0480918E04882322
:1014700011F10E947A040E94EF0A0E947A040896F1
:101480000E943A0B0E947A0440960E94850B0E94AB
:101490007A0448960E94D00B0E947A0480960E949B
:1014A0001B0C0E947A0488960E94660C0E947A04A3
:1014B000C0960E94B10C88E994E00C94CA05809112
:1014C0009604089580919704089580919504089555
:1014D0000895089581E080938E04089510928E04FB
:1014E000089581E08093D8008DE790E00E94421338
:1014F0008091E2008093E50084E296E090933F06BD
:1015000080933E061092400682E08093380696E073
:1015100090933D062CE136E0309334062093330659
:101520001092350680932D0688E0809332060E9443
:10153000CA1B0496909302068093010682E0982FBE
:101540009295907F9093ED001092EE001092EF0034
:101550001092F0001092F2001092F3001092F4003A
:101560001092F6001092F7009091EF00986090931F
:10157000EF009091EF0090689093EF008F5F8630BE
:10158000F1F68091DE008C638093DE0080EA809328
:10159000DB0010920A068FE080930906109208067D
:1015A00010920706109200051092FF040E94D607C1
:1015B00090939E0480939D040895662379F0209172
:1015C000FF04DC01620F8D91E22FF0E0EF5FFA4F34
:1015D00080832F5F2613F7CF2093FF040895CF93C6
:1015E000DF93EC0188EE93E09093430680934206EC
:1015F0000BC080914206909143060097C1F101977C
:10160000909343068093420687E396E00E94431836
:10161000813079F38091420690914306892B39F10C
:101620008881809324068981809325068A8180930E
:1016300026068B81809327068C81809328068D81D6
:10164000809329068E8180932A068F8180932B06B2
:1016500088E080933D068AE590E090933A06809377
:10166000390687E396E0DF91CF910C945013DF9118
:10167000CF910895CF93DF93EC0188EE93E09093A0
:101680004306809342060BC0809142069091430628
:101690000097C1F10197909343068093420687E338
:1016A00096E00E944318813079F380914206909130
:1016B0004306892B39F188818093240689818093A0
:1016C00025068A81809326068B81809327068C814C
:1016D000809328068D81809329068E8180932A0627
:1016E0008F8180932B0688E080933D068BE590E008
:1016F00090933A068093390687E396E0DF91CF9185
:101700000C945013DF91CF910895CF93DF93EC01A8
:1017100088EE93E090934306809342060BC080913D
:101720004206909143060097C1F1019790934306BA
:101730008093420687E396E00E944318813079F354
:101740008091420690914306892B39F188818093DC
:1017500024068981809325068A81809326068B81C1
:10176000809327068C81809328068D81809329069B
:101770008E8180932A068F8180932B0688E0809348
:101780003D068CE590E090933A068093390687E316
:1017900096E0DF91CF910C945013DF91CF91089593
:1017A000CF93DF93EC0188EE93E090934306809310
:1017B00042060BC080914206909143060097C1F10A
:1017C0000197909343068093420687E396E00E9438
:1017D0004318813079F38091420690914306892B1A
:1017E00039F18881809324068981809325068A8136
:1017F000809326068B81809327068C818093280610
:101800008D81809329068E8180932A068F81809313
:101810002B0688E080933D068DE590E090933A0694
:101820008093390687E396E0DF91CF910C945013B3
:10183000DF91CF910895CF93DF93EC0188EE93E091
:1018400090934306809342060BC08091420690918C
:1018500043060097C1F10197909343068093420697
:1018600087E396E00E944318813079F38091420625
:1018700090914306892B39F18881809324068981D0
:10188000809325068A81809326068B818093270684
:101890008C81809328068D81809329068E81809388
:1018A0002A068F8180932B0688E080933D068EE583
:1018B00090E090933A068093390687E396E0DF91B3
:1018C000CF910C945013DF91CF910895CF93DF9374
:1018D000EC0188EE93E090934306809342060BC0A0
:1018E00080914206909143060097C1F10197909331
:1018F00043068093420687E396E00E9443188130B6
:1019000079F38091420690914306892B39F18881C1
:10191000809324068981809325068A8180932606F8
:101920008B81809327068C81809328068D818093FC
:1019300029068E8180932A068F8180932B0688E06A
:1019400080933D068FE590E090933A0680933906A8
:1019500087E396E0DF91CF910C945013DF91CF9104
:101960000895CF93DF93EC0188EE93E090934306C4
:10197000809342060BC080914206909143060097E7
:10198000C1F10197909343068093420687E396E066
:101990000E944318813079F380914206909143066A
:1019A000892B39F1888180932406898180932506CB
:1019B0008A81809326068B81809327068C81809371
:1019C00028068D81809329068E8180932A068F8137
:1019D00080932B0688E080933D0680E690E090930C
:1019E0003A068093390687E396E0DF91CF910C9415
:1019F0005013DF91CF9108951F93CF93DF93182F4A
:101A0000D62FC42F8CE296E00E9443188130D1F388
:101A100010931C06D0931D06C0931E06E09101068C
:101A2000F0910206808180931F06818180932006B9
:101A300082818093210683818093220687E08093B0
:101A400032068AE290E090932F0680932E068CE275
:101A500096E00E9450138111FACFDF91CF911F9130
:101A600008958CE296E00E9443188130D1F31092E1
:101A700032068BE290E090932F0680932E068CE244
:101A800096E00E9450138111FACF08958CE296E0FF
:101A90000E9443188130D1F31092320689E290E01F
:101AA00090932F0680932E068CE296E00E945013AE
:101AB0008111FACF0895CF93DF93EC018CE296E089
:101AC0000E9443188130D1F3888180931C0689815C
:101AD00080931D068A8180931E068B8180931F064A
:101AE00084E0809332068EE190E090932F068093FD
:101AF0002E068CE296E00E9450138111FACFDF91FE
:101B0000CF910895CF93DF93EC018CE296E00E9491
:101B100043188130D1F3888180931C06898180939A
:101B20001D068A8180931E068B8180931F0684E0A8
:101B3000809332068DE290E090932F0680932E06DC
:101B40008CE296E00E9450138111FACFDF91CF9181
:101B50000895CF93C82F88EE93E090934306809327
:101B600042060BC08091420690914306009781F196
:101B70000197909343068093420687E396E00E9484
:101B80004318813079F38091420690914306892B66
:101B9000F9F01092FE04C0931C0681E08093320697
:101BA00087E190E090932F0680932E0687E396E0DE
:101BB0000E945013882399F08CE08093380687E3C5
:101BC00096E00E94501382E080933806CF910895EA
:101BD0008091FE048F5F833320F48093FE04CF91C5
:101BE00008951092FE04CF910C94710ACF93DF9365
:101BF000EC018CE296E00E9443188130D1F3888199
:101C000080931C06898180931D068A8180931E061D
:101C10008B8180931F068C81809320068D81809319
:101C200021068E81809322068F818093230688E08F
:101C30008093320681E290E090932F0680932E06E7
:101C40008CE296E00E9450138111FACFDF91CF9180
:101C50000895CF93DF93EC018CE296E00E94431845
:101C60008130D1F3888180931C06898180931D0681
:101C70008A8180931E068B8180931F068C818093BE
:101C800020068D81809321068E81809322068F818C
:101C90008093230688E0809332068CE090E0909356
:101CA0002F0680932E068CE296E00E94501381113D
:101CB000FACFDF91CF9108951F93CF93DF93182F21
:101CC000D92FC62F8CE296E00E9443188130D1F3C1
:101CD000CC2381F0E12FFD2FACE1B6E02FEF2C0FEC
:101CE00030E02F5F3F4F2E0F3F1F81918D93E21702
:101CF000F307D9F7C09332068CE090E090932F065B
:101D000080932E068CE296E00E9450138111FACF48
:101D1000DF91CF911F9108958CE296E00E944318C5
:101D20008130D1F31092320686E290E090932F0634
:101D300080932E068CE296E00E9450138111FACF18
:101D400008958CE296E00E9443188130D1F31092FE
:101D5000320687E290E090932F0680932E068CE265
:101D600096E00E9450138111FACF08958CE296E01C
:101D70000E9443188130D1F31092320688E290E03D
:101D800090932F0680932E068CE296E00E945013CB
:101D90008111FACF089580910A06089510920A06DB
:101DA000089580910906089580910806089580930A
:101DB00008060895FC01DB019C012C5F3F4F9191C7
:101DC0008D91981305C0E217F307C9F781E00895D4
:101DD00080E00895882319F091E090930A0690918D
:101DE0009C04982790939C04809309060E94F21DFE
:101DF0009091090690FF04C020919C0420FD1AC018
:101E000091FF04C020919C0421FD11C092FF04C0E9
:101E100020919C0422FD08C093FF05C090919C0472
:101E200093FD80930606089580930506F5CF809371
:101E30000406ECCF80930306E3CFE0910005809188
:101E4000FF048E1709F43EC0F0E0EF5FFA4FA09157
:101E50000106B09102069F012C5F3F4F91918D9139
:101E6000981331C0E217F307C9F7F8949091FF0473
:101E700080910005981709F4C2C021E0280F92173D
:101E800009F4BBC022E0280F20930005921709F443
:101E9000B6C023E0280F20930005921709F4AFC0C5
:101EA000E4E0E80FE09300059E1709F4A8C08B5FFB
:101EB00080930005F0E0EF5FFA4F80810E94EA0E08
:101EC00078940895089588EE93E090934306809364
:101ED00042060CC08091420690914306009709F497
:101EE00076C00197909343068093420687E396E07D
:101EF0000E944318813071F380914206909143060D
:101F0000892B09F464C01092FE04F8949091FF04A8
:101F100080910005981709F466C0A1E0A80FA0936E
:101F20000005E82FF0E0EF5FFA4F208120932406B0
:101F30009A1709F466C0E2E0E80FE0930005B0E00C
:101F4000AF5FBA4F2C91209325069E1709F44FC01E
:101F5000A3E0A80FA0930005F0E0EF5FFA4F208107
:101F6000209326069A1709F450C0E4E0E80FE093A6
:101F70000005B0E0AF5FBA4F2C91209327069E1763
:101F800009F447C08B5F80930005F0E0EF5FFA4FE4
:101F9000808180932806789485E080933D0682E0D6
:101FA00090E090933A068093390687E396E00E948A
:101FB0005013882309F486CF8CE08093380687E39A
:101FC00096E00E94501382E0809338060895809135
:101FD000FE048F5F833318F48093FE0408951092FB
:101FE000FE040C94710A1092240610922506109299
:101FF00026061092270680E0CCCF9093000580E063
:102000005DCF10922506109226061092270680E0DA
:10201000C0CF80E0BECF1F920F920FB60F92112457
:102020002F923F924F925F926F927F928F92AF92D8
:10203000BF92CF92DF92EF92FF921F932F933F9325
:102040004F935F936F937F938F939F93AF93BF93C0
:10205000CF93DF93EF93FF937090ED0012E088240D
:102060008394C8E1D6E080E1582E91E1E92E96E014
:10207000F92E24E0622E34E1232E36E0332E4BE19C
:10208000A42E46E0B42E5CE1C52E56E0D52E812F5D
:102090008295807F8093ED008091EE0085FF17C0D0
:1020A00080920706E091F2008091F300E295E695B8
:1020B000E770F0E098E0899FE00DF11D1124329760
:1020C000EF37F10548F4EA5BFF4F0C94DA1F80917B
:1020D000EE008F7109F000001092EE0088E080930E
:1020E000EF008091EF0080688093EF008091DA002C
:1020F0008093DA001F5F163051F67092ED00FF9169
:10210000EF91DF91CF91BF91AF919F918F917F918F
:102110006F915F914F913F912F911F91FF90EF90A1
:10212000DF90CF90BF90AF908F907F906F905F9037
:102130004F903F902F900F900FBE0F901F901895CB
:10214000E4E1F6E08091FA00819386E0EA31F80755
:10215000C9F784E196E00E940306BECFA4E1B6E091
:10216000FD018091FA00819396E0E931F907C9F702
:10217000E0910106F09102068D9191919813ACCFF8
:10218000CA17DB07C9F7809118060E94EA0EA4CF90
:102190005998A2CF599AA0CF809108068260809367
:1021A000080685B1852585B997CF8091080680649A
:1021B0008093080682E00E949E088ECFE4E1F6E05C
:1021C0008091FA008193CE16DF06D1F785CF8091FA
:1021D000FA00809314069091080690649093080684
:1021E0000E949E0879CF809108068160809308063E
:1021F00073CF8091FA00809314068091FA00809347
:1022000015068091FA00809316068091FA0080935B
:102210001706E4E1F6E0A0910106B0910206919163
:102220008D91981359CFCE17DF07C9F7F894F99914
:10223000FECF8AE697E00E94F91F813009F40BC1B6
:10224000F999FECF61E08AE697E00E940120F999B2
:10225000FECFEFCF809108068460809308063CCFC4
:10226000E4E1F6E08091FA00819396E0EC31F90721
:10227000C9F784E196E00E94D9072ECFECE0F6E0A2
:102280008091FA0081932E163F06D1F780920B06BB
:1022900023CFECE0F6E08091FA008193EE16FF0682
:1022A000D1F782E080930B0617CF0E94680A14CF03
:1022B0000E94690A11CF0E947D040ECFE4E1F6E08E
:1022C000DF018091FA008D9386E0AB31B807C9F742
:1022D00090910301A0919D04B0919E04A90FB11D9E
:1022E00081918D93AE16BF06D9F7995F9093030144
:1022F00080919F048F5F80939F04EECE8091FA00BF
:10230000809314068091FA00809315068091FA005C
:10231000809316068091FA00809317064090A104DE
:10232000442009F49BC022EA34E040E0E4E1F6E016
:10233000D90191918D91981308C0CE17DF0709F448
:10234000CBCE91918D919817C1F34F5F2C5F3F4F8A
:102350004412ECCF842D880F880F90E0BC016F5F92
:102360007F4FAC014E5F5F4F9C012D5F3F4FF1E00F
:10237000F40DDC01AE55BB4FE0911406EC93DB018C
:10238000AE55BB4F809115068C93DA01AE55BB4F0D
:10239000809116068C93D901AE55BB4F80911706DC
:1023A0008C93F093A10498CEECE0F6E08091FA00D3
:1023B00081932E163F06D1F783E080930B068CCED7
:1023C0008091FA00809314068091FA00809315069C
:1023D0008091FA00809316068091FA008093170688
:1023E000E4E1F6E0A0910106B091020691918D9191
:1023F000981372CECE17DF07C9F70E946A0A6CCE17
:102400008091FA00809314068091FA00809315065B
:102410008091FA00809316068091FA008093170647
:10242000E4E1F6E0A0910106B091020691918D9150
:10243000981352CECE17DF07C9F70E946E0A4CCE12
:10244000ECE0F6E08091FA008193EE16FF06D1F7FA
:1024500060920B0641CE0E94D01B3ECEF1E023E0FD
:1024600030E042E050E061E070E080E090E081CF59
:102470008091070608951092A1041092A004089577
:102480009091A0042091A1049217E8F4892F90E084
:10249000880F991F880F991F8E559B4F0E94820DA0
:1024A0008091A00490E0880F991F880F991F8E5586
:1024B0009B4F0E94820D8091A00491E0980F909311
:1024C000A0042091A10481E0921708F480E008950F
:1024D0008091A0048823A1F090E0880F991F880FB5
:1024E000991F82569B4F0E94820D8091A00490E01C
:1024F000880F991F880F991F82569B4F0C94820D4D
:1025000008958091A104089580919F0408951092E8
:102510009F0481E080930301089540910301FC0131
:10252000A0919D04B0919E04A40FB11D9C01295F50
:102530003F4F81918D93E217F307D9F7495F40939D
:1025400003010895CF93C82F8CE296E00E944318B0
:102550008130D1F3C0931C0681E08093320680E580
:1025600090E090932F0680932E068CE296E00E94D6
:1025700050138111FACFCF91089580910B068230CC
:10258000F1F0A0F0833051F0843001F561E08CE08F
:1025900096E00E94B41A10920B06089560E08CE059
:1025A00096E00E94B41A10920B060895813079F4D7
:1025B0008CE096E00E94701A10920B0608958CE051
:1025C00096E00E94921A10920B06089508950895BD
:1025D00080E0982F9295907F9093ED00EEEEF0E0E2
:1025E0001192E83FF105E1F78F5F863091F708958A
:1025F0002091ED0080E0982F9295907F9093ED00D0
:102600009091EF00907C39F08F5F8630A1F7209396
:10261000ED008FEF08952093ED0008958091EF0075
:10262000807C11F48FEF08958091EE00982F907EBA
:10263000D1F3892F0895BC018091EF008F7099F03C
:1026400090E040E050E02091FA00FB01E40FF51F1C
:1026500020839F5F2091EF00492F50E02F7030E0E2
:102660004217530784F3089581E08093D8008EE0E9
:102670008093E2008CE08093E30087E38093E400A2
:1026800081E008950E943413811101C008950E94D1
:10269000E8128091D80082608093D80081E008958C
:1026A0000F931F93CF93DF9300D000D0CDB7DEB749
:1026B000FC0181818C3089F18F010E94F8128F3FDB
:1026C000F1F090E6D80119969C9319978C93829516
:1026D000807F8093ED00EEEEF0E01192E83FF1058F
:1026E000E1F7D8011196EC918E2F90E0FC01319723
:1026F000EB30F10528F1F801118680E005C08FE18B
:10270000D80119968C938FEF0F900F900F900F9028
:10271000DF91CF911F910F9108958185803661F7E8
:1027200080818295807F8093ED008091EF008F7390
:102730008093EF001092EE001082118680E0E4CFCB
:10274000EB53FF4F0C94DA1FF8018681882381F048
:1027500080E0D8011796ED91FC911897E80FF11DD4
:1027600090819093FA008F5F16969C91891788F359
:1027700019821A821B821C821092F7008B81982F7B
:10278000990F990F990F8A81829586958770890F85
:102790008093F6008A81982F990F990F990F89815C
:1027A000829586958770890F8093F5008981880FBF
:1027B000880F880F8093F400D8011A968C911A978D
:1027C00081601A968C938091F40084608093F40069
:1027D0008091F00084608093F0008091EF0080622F
:1027E0008093EF008091F4008E7F8093F4008091BD
:1027F000EF008F738093EF008091EF0080688093EB
:10280000EF0080E081CFD8011A968C911A9781FF52
:10281000B8C315968C911597982F990F990F990F0A
:1028200014968C911497829586958770890F809362
:10283000F30014968C911497982F990F990F990F74
:1028400013968C911397829586958770890F809344
:10285000F20013968C911397982F990F990F990F57
:1028600012968C911297829586958770890F809326
:10287000F10012968C91880F880F880F8093F000DA
:102880008091EF0080618093EF008FEF9FEFDC017C
:1028900089839A83AB83BC838093F7008B81982FC5
:1028A000990F990F990F8A81829586958770890F64
:1028B0008093F6008A81982F990F990F990F89813B
:1028C000829586958770890F8093F5008981880F9E
:1028D000880F880F8093F400F801828581608287D9
:1028E0008091F40084608093F4008091F000846013
:1028F0008093F0008091EF008F7D8093EF008091B6
:10290000F400816072CFD8011A968C911A9781FFDA
:1029100058C315968C911597982F990F990F990F69
:1029200014968C911497829586958770890F809361
:10293000F30014968C911497982F990F990F990F73
:1029400013968C911397829586958770890F809343
:10295000F20013968C911397982F990F990F990F56
:1029600012968C911297829586958770890F809325
:10297000F10012968C91880F880F880F8093F000D9
:102980008091EF0080618093EF008FEF9FEFDC017B
:1029900089839A83AB83BC838093F7008B81982FC4
:1029A000990F990F990F8A81829586958770890F63
:1029B0008093F6008A81982F990F990F990F89813A
:1029C000829586958770890F8093F5008981880F9D
:1029D000880F880F8093F400F80182858E7F8287AC
:1029E0008091F40084608093F4008091F0008B7FEC
:1029F0008093F0008091F4008160F7CEF801828529
:102A000081FFA7C28581982F990F990F990F848113
:102A1000829586958770890F8093F3008481982F23
:102A2000990F990F990F8381829586958770890FE9
:102A30008093F2008381982F990F990F990F8281CB
:102A4000829586958770890F8093F1008281880F27
:102A5000880F880F8093F0008091EF008061809351
:102A6000EF008FEF9FEFDC0189839A83AB83BC83F8
:102A70008093F7008B81982F990F990F990F8A8176
:102A8000829586958770890F8093F6008A81982FAA
:102A9000990F990F990F8981829586958770890F73
:102AA0008093F5008981880F880F880F8093F40048
:102AB0008091F4008B7F8093F4008091F40081601A
:102AC00094CEF801828581FF96C28581982F990F57
:102AD000990F990F8481829586958770890F8093CD
:102AE000F3008481982F990F990F990F8381829514
:102AF00086958770890F8093F2008381982F990FB4
:102B0000990F990F8281829586958770890F80939E
:102B1000F1008281880F880F880F8093F0008091E8
:102B2000EF0080618093EF00D8011A968C911A977C
:102B300081601A968C931A978091F000846080933C
:102B4000F0009091EF0016968C91892B8093EF0006
:102B50008091EF008F738093EF008091EF0080648D
:102B60008093EF0080E0D0CD19821A821B821C82F4
:102B70001092F7008B81982F990F990F990F8A81E6
:102B8000829586958770890F8093F6008A81982FA9
:102B9000990F990F990F8981829586958770890F72
:102BA0008093F5008981880F880F880F8093F40047
:102BB000F80182858E7F82878091F4008460809303
:102BC000F4008091F0008B7F8093F0000BCEF80131
:102BD000828581FF40C28581982F990F990F990FA7
:102BE0008481829586958770890F8093F300848114
:102BF000982F990F990F990F8381829586958770E9
:102C0000890F8093F2008381982F990F990F990F64
:102C10008281829586958770890F8093F1008281E9
:102C2000880F880F880F8093F0008091EF008061FB
:102C30008093EF00D80116968C91882381F080E074
:102C4000D8011796ED91FC911897E80FF11D90812E
:102C50009093FA008F5F16969C91891788F3F8017C
:102C6000828580FFA8C18091F00084608093F0008D
:102C70009091EF00F801868168CFF801828581FF8D
:102C8000D2C18581982F990F990F990F84818295D0
:102C900086958770890F8093F3008481982F990F10
:102CA000990F990F8381829586958770890F8093FC
:102CB000F2008381982F990F990F990F8281829545
:102CC00086958770890F8093F1008281880F880F25
:102CD000880F8093F0008091EF0080618093EF0077
:102CE000D80116968C91882381F080E0D801179640
:102CF000ED91FC911897E80FF11D90819093FA00E7
:102D00008F5F16969C91891788F38FEF9FEFDC01F8
:102D100089839A83AB83BC838093F7008B81982F40
:102D2000990F990F990F8A81829586958770890FDF
:102D30008093F6008A81982F990F990F990F8981B6
:102D4000829586958770890F8093F5008981880F19
:102D5000880F880F8093F400F80182858160828754
:102D60008091F40084608093F4008091F00084608E
:102D70008093F0008091EF0080628093EF0080915B
:102D8000F400816032CD19821A821B821C8210925B
:102D9000F7008B81982F990F990F990F8A8182954F
:102DA00086958770890F8093F6008A81982F990FF6
:102DB000990F990F8981829586958770890F8093E5
:102DC000F5008981880F880F880F8093F400D8015F
:102DD0001A968C911A9781601A968C938091F400C0
:102DE00084608093F4008091F00084608093F00010
:102DF0008091EF008F7D8093EF00F4CC19821A82CE
:102E00001B821C821092F7008B81982F990F990FCB
:102E1000990F8A81829586958770890F8093F60035
:102E20008A81982F990F990F990F8981829586959C
:102E30008770890F8093F5008981880F880F880F2C
:102E40008093F4008091F4008B7F8093F400CACCCF
:102E5000D8011A968C911A9781FF61C015968C91B2
:102E60001597982F990F990F990F14968C91149785
:102E7000829586958770890F8093F30014968C91C4
:102E80001497982F990F990F990F13968C91139768
:102E9000829586958770890F8093F20013968C91A6
:102EA0001397982F990F990F990F12968C9112974B
:102EB000829586958770890F8093F10012968C9188
:102EC000880F880F880F8093F0008091EF00806159
:102ED0008093EF00F80186818930F0F088E08683E6
:102EE00080E0D8011796ED91FC911897E80FF11D3D
:102EF00090819093FA008F5F16969C91891788F3C2
:102F0000D8011A968C911A978E7F1A968C931A97DD
:102F10008091F0008B7F13CE8111E2CFF1CFF801C9
:102F200093818281869586958695F0E29F9F800D9C
:102F300011248093F300D80112968C918295880F0A
:102F4000807E8093F2008091EF008F7E8093EF006F
:102F5000C1CF93818281869586958695B0E29B9FAD
:102F6000800D11248093F300F80182818295880FEF
:102F7000807E8093F2008091EF008F7E8093EF003F
:102F800070CDF80193818281869586958695F0E2D1
:102F90009F9F800D11248093F300D80112968C918D
:102FA0008295880F807E8093F2008091EF008F7E63
:102FB0008093EF006ACC8091F0008B7F8093F000CB
:102FC00057CEF80193818281869586958695F0E2A9
:102FD0009F9F800D11248093F300D80112968C914D
:102FE0008295880F807E8093F2008091EF008F7E23
:102FF0008093EF00CACC93818281869586958695D1
:10300000B0E29B9F800D11248093F300F801828130
:103010008295880F807E8093F2008091EF008F7EF2
:103020008093EF0081CD93818281869586958695E8
:10303000B0E29B9F800D11248093F300F801828100
:103040008295880F807E8093F2008091EF008F7EC2
:103050008093EF0045CE93818281869586958695F3
:10306000B0E29B9F800D11248093F300F8018281D0
:103070008295880F807E8093F2008091EF008F7E92
:103080008093EF00D7CD1F93CF93DF93FC01918501
:10309000911105C082E0DF91CF911F9108959F317A
:1030A000C9F39F3FB9F3EF0180818295807F8093C0
:1030B000ED000E940E13182F803241F008F451C029
:1030C000803409F444C0803A09F04FC08091EF0089
:1030D0008F708E838F8198850E941B139091F000D2
:1030E00092FB992790F98A8590FB80F98A879091C5
:1030F000EF0094FF44C082608A878091F300869538
:10310000869586958D838091F2009091F300869547
:103110008695869520E2929F800D11248C83809164
:10312000F1009091F20086958695869520E2929F17
:10313000800D11248B838091F0009091F100869591
:103140008695869520E2929F800D11248A831987A7
:103150008091EF008F738093EF001092EE0080E07B
:103160009ACF811102C081E096CF19878091EF003C
:103170008F738093EF001092EE0082E08CCF8D7FF2
:103180008A878091F3008295869587708B839091D2
:10319000F2008091F300929596959770880F880FB2
:1031A000880F890F8A83D3CFA0E9B0E01C92ECE7A7
:1031B000F0E080818064808380818F778083EBE77B
:1031C000F0E08081806280831092910082E08093A1
:1031D00092008C9183608C9308958093910088274E
:1031E00093709093920008958091910020919200A5
:1031F000237090E0922B089583E080934A0610920A
:1032000049060E94F51DE5E4F6E010821182128263
:1032100013820E94F21D8093440608950E94620A60
:10322000809595B1957E95B9469880FD299A81FD46
:10323000469A82FD2C9A83FD2B9A08951F93CF9373
:10324000DF930E94F21DD82F0E94620A182FC091AE
:103250004A06C23009F451C0E0F4CC2381F1C130F8
:10326000A1F40E949708882309F481C0809149063F
:103270008F5FD81750F095B18AE1892785B998B149
:1032800080E4892788B9D0934906DF91CF911F91B7
:103290000895C33029F1C430C1F70E9497088823EC
:1032A00009F468C081E080934A0685B1857E85B9BE
:1032B0004698D0934906DF91CF911F9108950E94BF
:1032C00097088111EFCF0E94CB0E882309F478C0B4
:1032D00082E080934A060E940E19D0934906D5CF0A
:1032E0002C9A2B9A469A299A80914406885F8D17CA
:1032F00060F684E080934A06C8CF0E949708811147
:10330000D1CF0E94D10E80FD4DC010FF78C029980A
:1033100081FF5FC0909146069F5F9093460695306F
:1033200030F028B190E4922798B91092460682FFB7
:103330004CC0909147069F5F90934706953030F0C0
:1033400025B190E1922795B91092470683FF45C0B9
:10335000809148068F5F80934806853008F495CFAA
:1033600095B188E0892785B9109248068ECF1092D2
:103370004A068BCF0E94650A813009F44CC08091C7
:1033800045068F5F80934506853008F47ECF95B162
:103390008AE1892785B998B180E4892788B9109294
:1033A000450673CF909145069F5F909345069530F3
:1033B00008F4AECF95B1C927C5B910924506A8CF7C
:1033C000DF91CF911F910C940E1912FF14C02C980D
:1033D000BDCF11FF18C04698AACF13FF18C02B9875
:1033E000811153CF10924A060E940E19DF91CF919E
:1033F0001F910C94CE0E2C9A10924706A7CF299AB3
:103400001092450685CF469A1092460690CF2B9A89
:1034100010924806E5CF2C9A2B9A469A299A109238
:1034200045061092460610924706109248061092E2
:103430004A062BCF85B1857E85B94698089595B10A
:103440008AE1892785B998B180E4892788B90895E8
:1034500095B182E0892785B9089598B180E48927DC
:1034600088B9089595B180E1892785B908950F93AA
:103470001F93CF93DF938C01C0EBD7E0F999FECF78
:10348000CE010E94F91FF80181938F012196C03C63
:10349000F7E0DF0799F7DF91CF911F910F91089522
:1034A0000F931F93CF93DF938C01C0EDD7E0F99971
:1034B000FECFCE010E94F91FF80181938F01219662
:1034C000C03EF7E0DF0799F7DF91CF911F910F9191
:1034D000089564EA71E00C94E91FF999FECF08950C
:1034E0000F931F93CF93DF93F8948C01C6EAD7E034
:1034F000F999FECFF80161918F01CE010E94012060
:103500002196CE3AF7E0DF0799F7F999FECF60E010
:103510008EEA97E00E9401207894DF91CF911F916D
:103520000F9108950F931F93CF93DF93F8948C011D
:10353000C0EDD7E0F999FECFF80161918F01CE017E
:103540000E9401202196C53DF7E0DF0799F7F99920
:10355000FECF60E085ED97E00E9401207894DF9136
:10356000CF911F910F910895EF92FF920F931F93A8
:10357000CF93DF936623B1F06130A1F1C0E020E08A
:10358000F894211114C0F999FECF60E08DEB97E01B
:103590000E9401207894DF91CF911F910F91FF90AD
:1035A000EF900895C0E028E0F894222361F38C01A5
:1035B000D0E0C055D84F2150E22EF12C8FEFE81A01
:1035C000F80AE00EF11EF999FECFF80161918F0122
:1035D000CE010E94012021960E151F05A1F7F99931
:1035E000D2CFD3CFC8E025E0DFCF1F920F920FB626
:1035F0000F9211248F939F938091BF068F5F8093CA
:10360000BF0689E09DE390938900809388009F9195
:103610008F910F900FBE0F901F901895CF93DF934F
:1036200000D0CDB7DEB7F89485B7816085BF15BEF1
:1036300084B18B6984B987B18F6C87B98AB18B6982
:103640008AB91DB815B81BB8F999FECF8BE697E07B
:103650000E94F91F813009F497C01092BE0604EB56
:1036600016E086EA97E09C01245B36407901F999DF
:10367000FECFC701800F911F0E94F91FF8018193AF
:103680008F01F6E00E3B1F0791F742E050E060EA41
:1036900071E0CE0101960E94E01F69817A8184EA7F
:1036A00096E00E94E91F0E94B8080E94E11D0E9456
:1036B0000E190E94421E1092800089E080938100C2
:1036C00080916F00826080936F0089E09DE390930A
:1036D0008900809388008FEF8093C0061092BF0608
:1036E00078949FE088E10FB6F894A89580936000E5
:1036F0000FBE909360000E943B120E94310D80919A
:10370000BF06882329F1A89581508093BF06809138
:10371000C0068F3F21F18F5F8093C0060E94021E7A
:103720008091C00680FD18C081FD1CC082FD1DC0B7
:1037300083FD1EC084FD1FC085FD20C086FD21C005
:1037400087FFDDCF0E94281E8091BF068111DBCF4D
:10375000A8950E94011ED3CF0E94031ED0CF1092C5
:10376000C006DCCF0E94041ECACF0E94081EC7CF2D
:103770000E94091EC4CF0E940A1EC1CF0E940C1EC7
:10378000BECF0E94101EBBCF8093BE0668CF809133
:10379000BE06089584EB96E0089584EA96E00895C5
:1037A000F89485B7816085BF82E085BF0C94007076
:1037B00008950F931F93CF93DF93CDB7DEB727976D
:1037C0000FB6F894DEBF0FBECDBF0E94F307811184
:1037D00059C00E94D40E182F882381F080FD70C03C
:1037E00011FDACC012FD04C113FD59C014FDAFC0E2
:1037F00015FDD9C016FD4EC117FD22C1809154069A
:103800008823C1F0109153061123A1F0183008F05D
:10381000FDC00E94D60720915206612F820F911D94
:103820000E945C0E1092530610925406109252069B
:103830000E94300680915706882321F08091560619
:1038400081110BC027960FB6F894DEBF0FBECDBF17
:10385000DF91CF911F910F9108958091550690E0CF
:10386000865A994F0E94F60D80915506885F809385
:10387000550680915606883008F4DBC08850809346
:103880005606E0CF0E94F81D863008F4A2CF0E94B1
:10389000690881E0809358060E94D40E9ACF81E097
:1038A000809354068AEF80935306109252060E942A
:1038B000D40E182F877F0E94D70E14FF99CF47C0D0
:1038C0004AE556E084EA96E0FA0111928E179F07C6
:1038D000E1F784EB96E0E4E6F6E0DC012D91CD0122
:1038E000DA012D93AD01B6E044365B07B1F7A4EAE7
:1038F000B6E024E736E08D9181932E173F07D9F784
:1039000064EA71E084E796E00E94E91F84E896E0AB
:103910000E94501A84E996E00E94371A81E0809351
:1039200057068AE480935606109255060E94D40EDC
:10393000182F8E7F0E94D70E11FF54CF0E94D40EF5
:10394000182F8D7F0E94D70E12FF4ECF51C00E94BC
:10395000F01E882309F4D1C080915806882309F409
:10396000D9C080915006823008F4E6C0109250060B
:10397000109251060E94D40E182F8F7E0E94D70EEF
:103980000E944012082F0E94FB1D002339F08091F5
:103990004F068111DFC081E080934F0610925806D8
:1039A000A89515FF27CF0E94F60710925806809120
:1039B0004E06811185C080914D068F5F80934D0624
:1039C000843008F417CF80914C06833008F498C0F7
:1039D00010924D0610924C060E9481128F5F0E9439
:1039E000A2120E94280881E080934E06A89502CF7B
:1039F0000E943B1E0E94601E882309F4F5CE0E949F
:103A0000F3078111F1CE0E944F06EECE0E94D60739
:103A100020915206820F911D0E94290E809152061C
:103A2000885F809352068091530688508093530696
:103A300001CF10925606109257061092550602CFEB
:103A40000E948112182F0E948412811708F4D6CE8A
:103A50000E9487048111D2CE80915906882309F4EF
:103A600085C00E94FD07811105C080914B068035FD
:103A700008F49AC00E94D40E8F770E94D70E0E943D
:103A800000081092590610924B060E943F1E0E9499
:103A9000A10EB4CE0E94A108082F8F3F09F4ACCE2E
:103AA0000E94F3078111A8CE60E0802F90E00E9471
:103AB000B5070E94D40E182F8F7B0E94D70E9CCE84
:103AC0000E94F01E8823C9F00E94280880915106A8
:103AD0008F5F80935106853008F4B4CE0E94D40ED7
:103AE0008F7D0E94D70E1092510610924E060E94B2
:103AF00081128823B1F10E9440120E94FB1DA2CEC8
:103B00000E94310D80914C068F5F80934C0610927D
:103B10004D0698CE0E940308809151068F5F8093D6
:103B2000510610925006853008F022CF8091580639
:103B3000882309F433CF1CCF0E94681210925806D4
:103B4000809150068F5F809350060E94FB1D8091EC
:103B50005106E9CF10924F060E94FA070E943F1EBD
:103B60001DCF0E94FA070E943F1E6CCEAE014D5F32
:103B70005F4FBE016E5F7F4FCE0101960E948A04A7
:103B80008091B8068C838091B9068D838091BA06A6
:103B90008E838091BB068F83CE0101960E948D1289
:103BA00081E0809359065DCF0E94D607BC0181E079
:103BB000810F0E94580880914B068F5F80934B06BF
:103BC0001DCE0E94710A0E94FC000E94D4180E941F
:103BD000731F0E946D1A59980E9472080E94A408CF
:103BE0000C94FC188091C40608951092C4060895A0
:103BF0008091C30608951092C30608958091C2066D
:103C000008950895089508950E94CD060C941D0FFF
:103C1000089508950C94A7010E9475080C94D91B6F
:103C20000E94810481110DC00E948704882331F015
:103C30008091C106811108950C941A060E941E19E4
:103C4000F7CF0E9452010E9420090E948404ECCF09
:103C50008091C4068F5F8093C4069091C3069F5FD6
:103C60009093C306893718F081E08093C2060E94C2
:103C7000210A0C94BD1281E08093C1060895109230
:103C8000C10608951092C7061092C6061092C50686
:103C9000E8ECF0E080E8808380818F60808383E3BC
:103CA00090E09093CE008093CD0080E28093CC0092
:103CB000EAECF0E080818B6080835F984198089502
:103CC0009091C7068091C606981711F080E008957C
:103CD0008091C90082FB992790F981E08927089596
:103CE0001F920F920FB60F9211242F933F934F9371
:103CF0005F936F937F938F939F93AF93BF93EF9354
:103D0000FF9398B180E4892788B9E9ECF0E08081DD
:103D100088608083E8ECF0E08081806880830E9486
:103D2000421EFF91EF91BF91AF919F918F917F9133
:103D30006F915F914F913F912F910F900FBE0F9018
:103D40001F9018951F920F920FB60F9211242F9368
:103D50003F934F935F936F937F938F939F93AF9313
:103D6000BF93EF93FF938091C90080FD2EC0809197
:103D7000C90081FF19C0E091C7068091C606E81707
:103D800061F181E08E0F8093C706F0E0E853F94FB0
:103D900080818093D2008091C706883C10F01092F9
:103DA000C70682E08093C900FF91EF91BF91AF9168
:103DB0009F918F917F916F915F914F913F912F9143
:103DC0000F900FBE0F901F9018958091D2000E9407
:103DD000E50481E08093C900CACF1092C506E1CF07
:103DE00081E02091C6069091C706291380E00895CE
:103DF000F8942091C7063091C606321708F042C0E9
:103E00002150231B7894261708F444C0F8946623A5
:103E1000F1F0E091C606DC016150262F30E02F5F03
:103E20003F4F280F391F04C0E82FA217B30769F0CE
:103E300081E08E0F9D91F0E0E853F94F9083883C2C
:103E400098F3E0E0A217B30799F7E093C6068091D4
:103E5000C5068130A1F081E08093C506E091C706D8
:103E60008E0F8093C706F0E0E853F94F808180936E
:103E7000D2008091C706883C10F01092C706789453
:103E800081E00895231740F42953231B78942617C3
:103E900008F0BCCF80E0089527ECB4CF0F931F93B8
:103EA000CF93DF93CDB7DEB7E2970FB6F894DEBFBE
:103EB0000FBECDBF8C01BC01CE0101960E94E91F4F
:103EC000C8010E94F01F682FCE0101960E94F81EC3
:103ED000E2960FB6F894DEBF0FBECDBFDF91CF9153
:103EE0001F910F910895F999FECF109290070895B0
:103EF0000F931F93CF93DF93CDB7DEB72A970FB6FB
:103F0000F894DEBF0FBECDBF8C01FC01228187E09B
:103F1000820F90919007905D998390E39A8399E244
:103F2000899F912D112492959F7030E3390F3B8327
:103F3000F4E69F9F801911249DEC899F912D1124F7
:103F400096959695969530E3390F3C833AE0939F8A
:103F500080191124805D8D8382EC8E8383E58F83AD
:103F6000F80180818887818189872A8786EB91E0A3
:103F70000E944E1F6AE0CE0101960E94F81EF801D1
:103F80006281838194810E94F81EF8018581898372
:103F900086818A8362E0CE0101960E94F81E2A96ED
:103FA0000FB6F894DEBF0FBECDBFDF91CF911F914A
:103FB0000F910895EE0FFF1F0590F491E02D0994E5
:103FC000FB01DC0102C005900D9241505040D8F732
:103FD0000895FB01DC0105900D920020E1F70895A2
:103FE000FC0105900020E9F7809590958E0F9F1FAA
:103FF0000895F999FECF92BD81BDF89A992780B5B1
:104000000895262FF999FECF1FBA92BD81BD20BD1C
:104010000FB6F894FA9AF99A0FBE01960895F8949B
:02402000FFCFD0
:0C40220001FFFF0109020308050607006A
:00000001FF
