:103000000C944B180C945D180C945D180C945D187E
:103010000C945D180C945D180C945D180C945D185C
:103020000C945D180C945D180C945D180C945D184C
:103030000C946A1B0C945D180C945D180C945D182C
:103040000C945D180C945D180C94471A0C945D1840
:103050000C945D180C945D180C945D180C945D181C
:103060000C945D180C945D180C945D180C945D180C
:103070000C945D180C945D180C945D18556E6B6E75
:103080006F776E00003530313031302D30303030D8
:1030900035320000000011241FBECFEFD4E0DEBFA8
:1030A000CDBF22E0A0E0B1E001C01D92A132B20785
:1030B000E1F70E94831B0C94A61F0C94001880E07B
:1030C000982F9295907F9093ED00EEEEF0E01192A4
:1030D000E83FF105E1F78F5F863091F70895209181
:1030E000ED0080E0982F9295907F9093ED00909165
:1030F000EF00907C19F42093ED0008958F5F8630E7
:1031000089F72093ED008FEF08958091EF00807C88
:1031100039F08091EE00982F907E19F0892F089554
:103120008FEF0895BC0190E02091EF00492F50E00F
:103130002F7030E04217530744F48091FA00FB01EE
:10314000E40FF51F80839F5FEFCF089581E08093A8
:10315000D8008EE08093E2008CE08093E30087E368
:103160008093E40081E008950E94A618882341F02E
:103170000E945F188091D80082608093D80081E01F
:103180000895CF93DF93EC010E946F188F3F09F4ED
:103190007EC090E6998788838295807F8093ED003A
:1031A000EEEEF0E01192E83FF105E1F7898182301F
:1031B00009F06AC08A8581FF2BC09D818C81829530
:1031C0008695877028E0929F800D11248093F300EC
:1031D0009C818B8182958695877028E0929F800DD7
:1031E00011248093F2009B818A8182958695877055
:1031F00028E0929F800D11248093F1008A81880F2E
:10320000880F880F8093F0008091EF00806114C0D8
:103210009B818A8186958695869520E2929F800D76
:1032200011248093F3008A818295880F807E809399
:10323000F2008091EF008F7E8093EF0080E09E810E
:10324000891748F4EF81F885E80FF11D908190937C
:10325000FA008F5FF4CF8A858E7F8A878091F00095
:103260008B7F8093F0009091EF008E81892B80936B
:10327000EF008091EF008F738093EF008091EF005B
:1032800080648093EF0001C0198680E003C08FE165
:1032900089878FEFDF91CF9108951F93CF93DF93AD
:1032A000EC019985992309F47FC09F3109F47CC012
:1032B0009F3F09F479C088818295807F8093ED00DB
:1032C0000E948518182F803259F020F4882309F4C1
:1032D0006DC062C0803409F455C0803A09F05CC00A
:1032E0008091EF008F708E838F8198850E94921855
:1032F0009091F00092FB992790F98A8590FB80F9D4
:103300008A879091EF0094FF29C082608A8780911C
:10331000F3008695869586958D838091F200909135
:10332000F30086958695869520E2929F800D112464
:103330008C838091F1009091F20086958695869518
:1033400020E2929F800D11248B838091F000909158
:10335000F10086958695869520E210C08D7F8A873C
:103360008091F3008295869587708B838091F2001F
:103370009091F30082958695877028E0929F800D4A
:1033800011248A8319878091EF008F738093EF0057
:103390001092EE0080E00BC019878091EF008F73D0
:1033A0008093EF001092EE0082E001C081E0DF9197
:1033B000CF911F91089585B18A6185B9469AF89495
:1033C00085B7816085BF15BE0C94000008958DEF10
:1033D00091E00E944D198130D1F31092030280E2F6
:1033E00090E0909300028093FF018DEF91E00E94A6
:1033F000C1188111FACF08958DEF91E00E944D1907
:103400008130D1F388E080930302309169012091EB
:103410006A0190916B0180916C0130930D022093B1
:103420000E0290930F02809310023091650120915B
:103430006601909167018091680130931102209399
:103440001202909313028093140280E590E090930F
:1034500000028093FF018DEF91E00E94C11881115D
:10346000FACF08958DEF91E00E944D198130D1F38C
:103470001092030281E190E0909300028093FF019B
:103480008DEF91E00E94C1188111FACF08951F922B
:103490000F920FB60F9211240F931F932F933F9308
:1034A0004F935F936F937F938F939F93AF93BF934C
:1034B000CF93DF93EF93FF9380E58093ED008091AE
:1034C000EE0085FFDDC02091F2008091F30022958F
:1034D0002695277038E0839FC0011124820F911D2B
:1034E0008C30910559F5E9E1F2E08091FA00819381
:1034F00082E0E132F807C9F780916201882309F47C
:10350000C4C091E09093FC018091EF008F708830EF
:1035100020F49093FB0180935D018091F80181116B
:10352000B4C081E08093F801F999FECF6FEF8DE68A
:1035300091E00E94981FF999FECFA7C08F309105A6
:1035400059F4E9E1F2E081E292E02091FA0021935E
:103550008E179F07D1F799C08E31910541F481E014
:10356000809363018093620180935E018EC08832F4
:10357000910521F481E08093610187C08E3091052F
:1035800069F481E0809308028091FA0080937101D0
:1035900080E19091FA008150E1F777C08A3191057E
:1035A00009F473C08D32910509F064C03091FA00BE
:1035B000309319022091FA0020931A029091FA0098
:1035C00090931B028091FA0080931C0240910401A9
:1035D00043135BC030910501321357C0209106019F
:1035E000291353C09091070198134FC0AAE0B1E08E
:1035F00084E591E0FD0111928E179F07E1F7E0E06D
:10360000F1E08AE091E021912D938E179F07D9F781
:103610006CE770E384E191E00E94891F65E870E344
:1036200084E291E00E94891F04E311E0C0EDD1E043
:10363000F999FECFCE010E94901FF80181938F016E
:103640002196C03EF1E0DF0799F704E411E0C0EBFA
:10365000D1E0F999FECFCE010E94901FF80181932D
:103660008F012196C03CF1E0DF0799F781E080935C
:1036700060010BC08B9749F481E080935F0105C026
:103680008091EE008F7109F000008091EE001092A1
:10369000EE0088E08093EF008091EF0080688093D7
:1036A000EF008091DA008093DA00FF91EF91DF91D3
:1036B000CF91BF91AF919F918F917F916F915F91CA
:1036C0004F913F912F911F910F910F900FBE0F902F
:1036D0001F9018951F920F920FB60F9211248F937F
:1036E0009F93809109028F5F8093090289E09DE397
:1036F00090938900809388009F918F910F900FBEC7
:103700000F901F901895CF93DF9300D000D01F9299
:10371000CDB7DEB71092640110926301109262017E
:10372000109261011092600110925F0110925E018F
:1037300010925C0110925B0110925A01F89481E0A2
:1037400085BF82E085BF9FE088E10FB6F894A89519
:10375000809360000FBE909360001092FC01109265
:10376000FB011092FA011092F9011092F8011092E7
:1037700077011092760110927201109273011092EB
:1037800074011092750110927101109269011092EA
:103790006A0110926B0110926C01109265011092F7
:1037A0006601109267011092680110926D011092EB
:1037B0006E0110926F011092700184B18B6984B90F
:1037C00087B18F6C87B98AB18B618AB91DB815B87A
:1037D0001BB800E011E086EA91E09A838983F999A9
:1037E000FECF89819A810E94901FD8018D938D010F
:1037F000E981FA813196FA83E983E03BF14079F778
:103800001092800089E08093810080916F00826037
:1038100080936F0089E09DE39093890080938800F6
:103820008FEF80930A021092090281E08093D80002
:103830008DE790E00E94B4188091E2008093E5004B
:103840008DE092E0909305028093040210920602AC
:1038500082E08093FE0188E08093030280E58093FC
:10386000ED001092EE001092EF001092F7008091A0
:10387000F6008F718093F6001092F4008091F000B2
:103880008B7F8093F0008091EF0088608093EF0041
:103890008091EF0080688093EF008091DE0080626D
:1038A0008093DE0080EA8093DB002C9AF999FECFAA
:1038B0008DE691E00E94901F182FF999FECF8AE6BD
:1038C00091E00E94901F082F78941D828DE0882E31
:1038D000912C91E2292E312CA89511111AC001309A
:1038E00061F480916301811131C0E1E0E0936301F3
:1038F000E09362010E94E71929C0F999FECF6FEFAA
:103900008CE691E00E94981FF999FECF0E94DB1986
:103910001DC080915C01811107C081E080935C0132
:10392000299846982C982B9880915A0190915B0188
:103930008938934148F0B1E0B093640110925B0183
:1039400010925A010E94321A013059F280910802F5
:10395000813009F043C0F999FECF80917101813027
:1039600041F460E08CE691E00E94981FF999FECF47
:103970000DC08CE691E00E94901F8F3F39F0F999BD
:10398000FECF6FEF8CE691E00E94981F8091F801C6
:10399000811111C0F999FECF111103C00E94DB19EA
:1039A0001BC080916401811117C0F1E0F0936401A4
:1039B0000E94321A11C0F999FECF60E08DE691E0C5
:1039C0000E94981FF999FECF60E08AE691E00E947C
:1039D000981FF999FECF10E00E94DB19809109022F
:1039E000882309F4C7C081508093090280910A029C
:1039F0008F3F19F410920A0203C08F5F80930A026E
:103A000080910A0280FF68CF80910B0290910C0296
:103A1000019690930C0280930B0220915A013091F1
:103A20005B012F5F3F4F30935B0120935A01813838
:103A30009105E0F080915C018823C1F08091F8014C
:103A4000811114C095B182E0892785B998B180E4CD
:103A5000892788B995B180E1892785B995B188E032
:103A6000892785B910920C0210920B02A8958091BB
:103A70006001882309F449C0FAE0AF2EF1E0BF2EBF
:103A8000AAE0CA2EB8E07B2E8DEF91E00E944D197E
:103A90008130D1F370920302D5018C9180930D0295
:103AA00011968C91119780930E0212968C91129719
:103AB00080930F0213968C911397809310021496A3
:103AC0008C9114978093110215968C911597809381
:103AD000120216968C9116978093130217968C916A
:103AE00080931402309200022092FF018DEF91E04A
:103AF0000E94C1188111FACFA895CA94B8E0AB0E04
:103B0000B11CC110C1CF1092600180915F01882368
:103B100039F18DEF91E00E944D198130D1F3809100
:103B2000040180930D028091050180930E02809123
:103B3000060180930F02809107018093100284E0B8
:103B4000809303028CE290E0909300028093FF0147
:103B50008DEF91E00E94C1188111FACF10925F01A0
:103B600080915E01882309F4B7CE0E94E719109274
:103B70005E01B2CEA8958091FC01813009F02AC186
:103B80001092FC018091F9019091FA0101969093B5
:103B9000FA018093F9012091FB01222319F0109280
:103BA000FB0103C028E020935D018630910508F0F9
:103BB0004AC0019709F0FCC020911D0280916D015F
:103BC00090916E01A0916F01B0917001AC01BD01A7
:103BD000420F511D611D711D90911E02892F90E0B1
:103BE000A0E0B0E0BA2FA92F982F8827840F951F47
:103BF000A61FB71F40911F0250E060E070E0BA01BD
:103C000055274427840F951FA61FB71F40912002F8
:103C100050E060E070E0742F662755274427840F3A
:103C2000951FA61FB71F80936D0190936E01A093FF
:103C30006F01B0937001F999FECF60E08AE691E0E0
:103C40000E94981FB5C0E0917601F0917701E85885
:103C5000FE4F40E055E080E4B82E98E0A92E809118
:103C60005D01481708F0A4C0CF010196A42FB0E071
:103C7000A75EBD4F2C912083209176013091770172
:103C80002F5F3F4F30937701209376012038310525
:103C900008F48BC0ED81E03608F087C0F89480917D
:103CA000720190917301A0917401B09175018983A3
:103CB0009A83AB83BC8323E0FC0120935700E895F3
:103CC00007B606FE05C081E180935700E895F8CF5E
:103CD0004090690150906A0160906B0170906C0196
:103CE00028E731E0E0E0F0E0D9016D917C91B1E0AE
:103CF0000B01B0935700E8951124D9016C911196EE
:103D00007C91C72ED12CE12CF12CC60ED11CE11CCC
:103D1000F11C4C0C5D1C6E1C7F1C32962E5F3F4FBD
:103D2000E038F10509F74092690150926A0160920A
:103D30006B0170926C01E981FA8150935700E8950C
:103D400089819A81AB81BC8180589F4FAF4FBF4F13
:103D50008093720190937301A0937401B0937501E5
:103D600007B606FE05C0F1E1F0935700E895F8CFDD
:103D70002D812F5F2D832B3088F085B192E089272C
:103D800085B9293258F088B18B2588B9203631F4AD
:103D900085B18A2585B9A1E0A0936101789410923C
:103DA00077011092760188E791E04F5FFC0157CFD1
:103DB0008DEF91E00E944D198130D1F310920302F2
:103DC000909200028092FF018DEF91E00E94C11855
:103DD0008111FACF80916101882309F47DCD109281
:103DE0006101409165015091660160916701709198
:103DF000680180E090E0DC01FC012491420F511D3C
:103E0000611D711D0196A11DB11DA8958115F0E3DD
:103E10009F07A105B10581F780937201909373010B
:103E2000A0937401B09375014093650150936601AE
:103E300060936701709368018091690190916A01B4
:103E4000A0916B01B0916C0140906D0150906E019A
:103E500060906F017090700184159505A605B705F7
:103E6000E1F4481759076A077B07B9F4F8940E94F0
:103E7000FC19F999FECF60E08DE691E00E94981F51
:103E8000F999FECF60E08AE691E00E94981FF999C7
:103E9000FECF0E94DB1910E01FCD1092630110923B
:103EA00062011092FC011092FA011092F901109235
:103EB000F80110927701109276011092720110921F
:103EC00073011092740110927501109269011092A1
:103ED0006A0110926B0110926C01109265011092B0
:103EE0006601109267011092680110926D011092A4
:103EF0006E0110926F01109270010E94FC190E94D5
:103F0000321A21E020935C01299846982C982B982E
:103F1000E3CCFB01DC0105900D920020E1F7089550
:103F2000F999FECF92BD81BDF89A992780B5089581
:103F3000262FF999FECF1FBA92BD81BD20BD0FB6C5
:103F4000F894FA9AF99A0FBE01960895F894FFCF63
:0400000300003000C9
:00000001FF
